{
  "address": "0xf74C14ACC935a4d5053aa31952D2a256C138b5D9",
  "abi": [
    {
      "inputs": [],
      "stateMutability": "nonpayable",
      "type": "constructor"
    },
    {
      "inputs": [
        {
          "internalType": "address",
          "name": "owner",
          "type": "address"
        }
      ],
      "name": "OwnableInvalidOwner",
      "type": "error"
    },
    {
      "inputs": [
        {
          "internalType": "address",
          "name": "account",
          "type": "address"
        }
      ],
      "name": "OwnableUnauthorizedAccount",
      "type": "error"
    },
    {
      "anonymous": false,
      "inputs": [
        {
          "indexed": true,
          "internalType": "address",
          "name": "previousOwner",
          "type": "address"
        },
        {
          "indexed": true,
          "internalType": "address",
          "name": "newOwner",
          "type": "address"
        }
      ],
      "name": "OwnershipTransferred",
      "type": "event"
    },
    {
      "inputs": [],
      "name": "owner",
      "outputs": [
        {
          "internalType": "address",
          "name": "",
          "type": "address"
        }
      ],
      "stateMutability": "view",
      "type": "function"
    },
    {
      "inputs": [],
      "name": "renounceOwnership",
      "outputs": [],
      "stateMutability": "nonpayable",
      "type": "function"
    },
    {
      "inputs": [
        {
          "internalType": "address",
          "name": "newOwner",
          "type": "address"
        }
      ],
      "name": "transferOwnership",
      "outputs": [],
      "stateMutability": "nonpayable",
      "type": "function"
    },
    {
      "inputs": [
        {
          "internalType": "uint256",
          "name": "amount",
          "type": "uint256"
        },
        {
          "internalType": "address",
          "name": "to",
          "type": "address"
        },
        {
          "internalType": "address",
          "name": "asset",
          "type": "address"
        }
      ],
      "name": "withdraw",
      "outputs": [
        {
          "internalType": "bool",
          "name": "",
          "type": "bool"
        }
      ],
      "stateMutability": "nonpayable",
      "type": "function"
    }
  ],
  "transactionHash": "0xede3c950c0ee8ae404f737f7eb79b53b99528d9df6b20e312f8895f09ea91caf",
  "args": [],
  "numDeployments": 1,
  "solcInputHash": "91da1829d2e38522afa9d32470875333",
  "bytecode": "0x608060405234801561001057600080fd5b50610022640100000000610081810204565b600160a060020a038116610069576040517f1e4fbdf70000000000000000000000000000000000000000000000000000000081526000600482015260240160405180910390fd5b61007b81640100000000610085810204565b506100d5565b3390565b60008054600160a060020a03838116600160a060020a0319831681178455604051919092169283917f8be0079c531659141344cd1fd0a4f28419497f9722a3daafe3b4186f6b6457e09190a35050565b61039e806100e46000396000f3fe608060405234801561001057600080fd5b5060043610610068577c01000000000000000000000000000000000000000000000000000000006000350463715018a6811461006d5780638da5cb5b14610077578063b460af94146100a4578063f2fde38b146100c7575b600080fd5b6100756100da565b005b60005460405173ffffffffffffffffffffffffffffffffffffffff90911681526020015b60405180910390f35b6100b76100b23660046102e8565b6100ee565b604051901515815260200161009b565b6100756100d5366004610324565b610199565b6100e2610202565b6100ec6000610255565b565b60006100f8610202565b6040517fa9059cbb00000000000000000000000000000000000000000000000000000000815273ffffffffffffffffffffffffffffffffffffffff84811660048301526024820186905283169063a9059cbb906044016020604051808303816000875af115801561016d573d6000803e3d6000fd5b505050506040513d601f19601f820116820180604052508101906101919190610346565b949350505050565b6101a1610202565b73ffffffffffffffffffffffffffffffffffffffff81166101f6576040517f1e4fbdf7000000000000000000000000000000000000000000000000000000008152600060048201526024015b60405180910390fd5b6101ff81610255565b50565b60005473ffffffffffffffffffffffffffffffffffffffff1633146100ec576040517f118cdaa70000000000000000000000000000000000000000000000000000000081523360048201526024016101ed565b6000805473ffffffffffffffffffffffffffffffffffffffff83811673ffffffffffffffffffffffffffffffffffffffff19831681178455604051919092169283917f8be0079c531659141344cd1fd0a4f28419497f9722a3daafe3b4186f6b6457e09190a35050565b803573ffffffffffffffffffffffffffffffffffffffff811681146102e357600080fd5b919050565b6000806000606084860312156102fd57600080fd5b8335925061030d602085016102bf565b915061031b604085016102bf565b90509250925092565b60006020828403121561033657600080fd5b61033f826102bf565b9392505050565b60006020828403121561035857600080fd5b8151801515811461033f57600080fdfea2646970667358221220c4140690706bc5f797987973890e0e8e135c3ae5a3bc9bba337acfe4eb63a4ac64736f6c63430008140033",
  "devdoc": {
    "errors": {
      "OwnableInvalidOwner(address)": [
        {
          "details": "The owner is not a valid owner account. (eg. `address(0)`)"
        }
      ],
      "OwnableUnauthorizedAccount(address)": [
        {
          "details": "The caller account is not authorized to perform an operation."
        }
      ]
    },
    "kind": "dev",
    "methods": {
      "owner()": {
        "details": "Returns the address of the current owner."
      },
      "renounceOwnership()": {
        "details": "Leaves the contract without owner. It will not be possible to call `onlyOwner` functions. Can only be called by the current owner. NOTE: Renouncing ownership will leave the contract without an owner, thereby disabling any functionality that is only available to the owner."
      },
      "transferOwnership(address)": {
        "details": "Transfers ownership of the contract to a new account (`newOwner`). Can only be called by the current owner."
      }
    },
    "version": 1
  },
  "userdoc": {
    "kind": "user",
    "methods": {},
    "version": 1
  },
  "storageLayout": {
    "storage": [
      {
        "astId": 8,
        "contract": "contracts/FeeReceiver.sol:FeeReceiver",
        "label": "_owner",
        "offset": 0,
        "slot": "0",
        "type": "t_address"
      }
    ],
    "types": {
      "t_address": {
        "encoding": "inplace",
        "label": "address",
        "numberOfBytes": "20"
      }
    }
  }
}