{
  "address": "0x9fF548d6CF286c5135248AA778e799ec3A7D5350",
  "abi": [
    {
      "inputs": [
        {
          "internalType": "contract IERC20[]",
          "name": "_supportedAssets",
          "type": "address[]"
        },
        {
          "internalType": "address",
          "name": "_cUSD",
          "type": "address"
        },
        {
          "internalType": "address",
          "name": "_feeReceiver",
          "type": "address"
        }
      ],
      "stateMutability": "nonpayable",
      "type": "constructor"
    },
    {
      "inputs": [],
      "name": "AssetTransferFailed",
      "type": "error"
    },
    {
      "inputs": [
        {
          "internalType": "uint256",
          "name": "assetId",
          "type": "uint256"
        }
      ],
      "name": "InvalidAssetId",
      "type": "error"
    },
    {
      "inputs": [],
      "name": "InvalidStoreId",
      "type": "error"
    },
    {
      "inputs": [],
      "name": "NotPermitted",
      "type": "error"
    },
    {
      "inputs": [
        {
          "internalType": "address",
          "name": "owner",
          "type": "address"
        }
      ],
      "name": "OwnableInvalidOwner",
      "type": "error"
    },
    {
      "inputs": [
        {
          "internalType": "address",
          "name": "account",
          "type": "address"
        }
      ],
      "name": "OwnableUnauthorizedAccount",
      "type": "error"
    },
    {
      "inputs": [],
      "name": "TokenBalanceInStoreTooLow",
      "type": "error"
    },
    {
      "anonymous": false,
      "inputs": [
        {
          "indexed": false,
          "internalType": "uint256",
          "name": "itemId",
          "type": "uint256"
        },
        {
          "indexed": false,
          "internalType": "contract IERC20",
          "name": "asset",
          "type": "address"
        }
      ],
      "name": "ItemAdded",
      "type": "event"
    },
    {
      "anonymous": false,
      "inputs": [
        {
          "indexed": false,
          "internalType": "uint256",
          "name": "itemId",
          "type": "uint256"
        },
        {
          "indexed": false,
          "internalType": "contract IERC20",
          "name": "asset",
          "type": "address"
        }
      ],
      "name": "ItemRemoved",
      "type": "event"
    },
    {
      "anonymous": false,
      "inputs": [
        {
          "indexed": true,
          "internalType": "address",
          "name": "previousOwner",
          "type": "address"
        },
        {
          "indexed": true,
          "internalType": "address",
          "name": "newOwner",
          "type": "address"
        }
      ],
      "name": "OwnershipTransferred",
      "type": "event"
    },
    {
      "inputs": [
        {
          "internalType": "uint256",
          "name": "assetId",
          "type": "uint256"
        },
        {
          "internalType": "uint224",
          "name": "priceLimit",
          "type": "uint224"
        }
      ],
      "name": "addItemToStoreFront",
      "outputs": [
        {
          "internalType": "bool",
          "name": "",
          "type": "bool"
        }
      ],
      "stateMutability": "nonpayable",
      "type": "function"
    },
    {
      "inputs": [
        {
          "internalType": "uint256",
          "name": "storeId",
          "type": "uint256"
        },
        {
          "internalType": "uint224",
          "name": "amount",
          "type": "uint224"
        },
        {
          "internalType": "uint256",
          "name": "offerPrice",
          "type": "uint256"
        }
      ],
      "name": "buy",
      "outputs": [
        {
          "internalType": "bool",
          "name": "",
          "type": "bool"
        }
      ],
      "stateMutability": "nonpayable",
      "type": "function"
    },
    {
      "inputs": [],
      "name": "cUSD",
      "outputs": [
        {
          "internalType": "address",
          "name": "",
          "type": "address"
        }
      ],
      "stateMutability": "view",
      "type": "function"
    },
    {
      "inputs": [],
      "name": "createXWallet",
      "outputs": [
        {
          "internalType": "bool",
          "name": "",
          "type": "bool"
        }
      ],
      "stateMutability": "nonpayable",
      "type": "function"
    },
    {
      "inputs": [
        {
          "internalType": "uint256",
          "name": "storeId",
          "type": "uint256"
        },
        {
          "internalType": "uint224",
          "name": "newPriceLimit",
          "type": "uint224"
        }
      ],
      "name": "editPriceLimit",
      "outputs": [
        {
          "internalType": "bool",
          "name": "",
          "type": "bool"
        }
      ],
      "stateMutability": "nonpayable",
      "type": "function"
    },
    {
      "inputs": [
        {
          "internalType": "uint256",
          "name": "assetId",
          "type": "uint256"
        },
        {
          "internalType": "uint8",
          "name": "value",
          "type": "uint8"
        }
      ],
      "name": "editSupportAsset",
      "outputs": [
        {
          "internalType": "bool",
          "name": "",
          "type": "bool"
        }
      ],
      "stateMutability": "nonpayable",
      "type": "function"
    },
    {
      "inputs": [],
      "name": "feeTo",
      "outputs": [
        {
          "internalType": "address",
          "name": "",
          "type": "address"
        }
      ],
      "stateMutability": "view",
      "type": "function"
    },
    {
      "inputs": [],
      "name": "getData",
      "outputs": [
        {
          "components": [
            {
              "components": [
                {
                  "internalType": "address",
                  "name": "asset",
                  "type": "address"
                },
                {
                  "internalType": "address",
                  "name": "seller",
                  "type": "address"
                },
                {
                  "internalType": "uint224",
                  "name": "priceLimit",
                  "type": "uint224"
                },
                {
                  "components": [
                    {
                      "internalType": "string",
                      "name": "name",
                      "type": "string"
                    },
                    {
                      "internalType": "string",
                      "name": "symbol",
                      "type": "string"
                    },
                    {
                      "internalType": "uint8",
                      "name": "decimals",
                      "type": "uint8"
                    }
                  ],
                  "internalType": "struct IRegistry.AssetMetadata",
                  "name": "metadata",
                  "type": "tuple"
                },
                {
                  "components": [
                    {
                      "internalType": "uint256",
                      "name": "quantity",
                      "type": "uint256"
                    },
                    {
                      "internalType": "uint256",
                      "name": "assetId",
                      "type": "uint256"
                    },
                    {
                      "internalType": "uint256",
                      "name": "storeId",
                      "type": "uint256"
                    }
                  ],
                  "internalType": "struct IRegistry.StoreInfo",
                  "name": "info",
                  "type": "tuple"
                }
              ],
              "internalType": "struct IRegistry.StoreData[]",
              "name": "stores",
              "type": "tuple[]"
            },
            {
              "components": [
                {
                  "internalType": "uint256",
                  "name": "assetId",
                  "type": "uint256"
                },
                {
                  "internalType": "contract IERC20",
                  "name": "asset",
                  "type": "address"
                },
                {
                  "internalType": "bool",
                  "name": "isVerified",
                  "type": "bool"
                }
              ],
              "internalType": "struct IRegistry.SupportedAsset[]",
              "name": "supportedAssets",
              "type": "tuple[]"
            },
            {
              "components": [
                {
                  "internalType": "address",
                  "name": "owner",
                  "type": "address"
                },
                {
                  "internalType": "address",
                  "name": "xWallet",
                  "type": "address"
                }
              ],
              "internalType": "struct IRegistry.Wallet[]",
              "name": "xWallets",
              "type": "tuple[]"
            }
          ],
          "internalType": "struct IRegistry.Storage",
          "name": "stg",
          "type": "tuple"
        }
      ],
      "stateMutability": "view",
      "type": "function"
    },
    {
      "inputs": [],
      "name": "owner",
      "outputs": [
        {
          "internalType": "address",
          "name": "",
          "type": "address"
        }
      ],
      "stateMutability": "view",
      "type": "function"
    },
    {
      "inputs": [],
      "name": "renounceOwnership",
      "outputs": [],
      "stateMutability": "nonpayable",
      "type": "function"
    },
    {
      "inputs": [
        {
          "internalType": "contract IERC20",
          "name": "_asset",
          "type": "address"
        }
      ],
      "name": "setSupportedAsset",
      "outputs": [
        {
          "internalType": "bool",
          "name": "",
          "type": "bool"
        }
      ],
      "stateMutability": "nonpayable",
      "type": "function"
    },
    {
      "inputs": [
        {
          "internalType": "address",
          "name": "newOwner",
          "type": "address"
        }
      ],
      "name": "transferOwnership",
      "outputs": [],
      "stateMutability": "nonpayable",
      "type": "function"
    },
    {
      "inputs": [
        {
          "internalType": "uint256",
          "name": "assetId",
          "type": "uint256"
        }
      ],
      "name": "unSupportAsset",
      "outputs": [
        {
          "internalType": "bool",
          "name": "",
          "type": "bool"
        }
      ],
      "stateMutability": "nonpayable",
      "type": "function"
    }
  ],
  "transactionHash": "0x89bd1640d51708ad787954d1856dad5787ed458333a5e57f437ff47737a7af3a",
  "args": [
    [
      "0xb5cce95d60E35aD593cA6f69467B2F8194B173b9"
    ],
    "0x874069Fa1Eb16D44d622F2e0Ca25eeA172369bC1",
    "0xf74C14ACC935a4d5053aa31952D2a256C138b5D9"
  ],
  "numDeployments": 1,
  "solcInputHash": "1c083d60c90d0ca42672325cf9e19647",
  "bytecode": "0x60806040523480156200001157600080fd5b5060405162002d7438038062002d7483398101604081905262000034916200036e565b338062000075576040517f1e4fbdf7000000000000000000000000000000000000000000000000000000008152600060048201526024015b60405180910390fd5b6200008981640100000000620001fc810204565b50600160a060020a03821615801590620000ab5750600160a060020a03811615155b600160a060020a03831615620000f7576040518060400160405280601381526020017f496e76616c6964204665655265636569766572000000000000000000000000008152506200012e565b6040518060400160405280601481526020017f696e76616c6964204355534420616464726573730000000000000000000000008152505b9062000169576040517f08c379a00000000000000000000000000000000000000000000000000000000081526004016200006c919062000466565b5060018054600160a060020a03808516600160a060020a031992831617909255600280549284169290911691909117905560005b8351811015620001f257620001dd848281518110620001c057620001c0620004b6565b60200260200101516200024c640100000000026401000000009004565b80620001e981620004e5565b9150506200019d565b5050505062000526565b60008054600160a060020a03838116600160a060020a0319831681178455604051919092169283917f8be0079c531659141344cd1fd0a4f28419497f9722a3daafe3b4186f6b6457e09190a35050565b6000620002616401000000006200031c810204565b60408051606081018252918252600160a060020a03938416602083019081526001918301828152600380549384018155600052925160029092027fc2575a0e9e593c00f959f8c92f12db2869c3395a3b0502d05e2516446f71f85b810192909255517fc2575a0e9e593c00f959f8c92f12db2869c3395a3b0502d05e2516446f71f85c9091018054925115157401000000000000000000000000000000000000000002600160a860020a031990931691909416171790915550565b60035490565b7f4e487b7100000000000000000000000000000000000000000000000000000000600052604160045260246000fd5b8051600160a060020a03811681146200036957600080fd5b919050565b6000806000606084860312156200038457600080fd5b835167ffffffffffffffff808211156200039d57600080fd5b818601915086601f830112620003b257600080fd5b8151602082821115620003c957620003c962000322565b808202604051601f19603f83011681018181108682111715620003f057620003f062000322565b60405292835281830193508481018201928a8411156200040f57600080fd5b948201945b838610156200043857620004288662000351565b8552948201949382019362000414565b975062000449905088820162000351565b9550505050506200045d6040850162000351565b90509250925092565b600060208083528351808285015260005b81811015620004955785810183015185820160400152820162000477565b506000604082860101526040601f19601f8301168501019250505092915050565b7f4e487b7100000000000000000000000000000000000000000000000000000000600052603260045260246000fd5b6000600182016200051f577f4e487b7100000000000000000000000000000000000000000000000000000000600052601160045260246000fd5b5060010190565b61283e80620005366000396000f3fe60806040523480156200001157600080fd5b5060043610620000e45760003560e060020a90048063715018a6116200009b57806396fde8e9116200007257806396fde8e914620001c5578063accf291414620001dc578063e489b71014620001f3578063f2fde38b146200020a57600080fd5b8063715018a614620001905780638da5cb5b146200019c5780638f2349f814620001ae57600080fd5b8063017e7e5814620000e957806313e5b327146200011a5780631fccf67214620001425780633bc5de30146200015657806356f8e2e8146200016f5780636fd661e41462000186575b600080fd5b600254620000fd90600160a060020a031681565b604051600160a060020a0390911681526020015b60405180910390f35b620001316200012b36600462001a99565b62000221565b604051901515815260200162000111565b600154620000fd90600160a060020a031681565b6200016062000353565b60405162000111919062001bc4565b620001316200018036600462001d0b565b6200069b565b620001316200078b565b6200019a62000962565b005b600054600160a060020a0316620000fd565b62000131620001bf36600462001d35565b6200097a565b62000131620001d636600462001d68565b62000b84565b62000131620001ed36600462001db6565b62000bfd565b620001316200020436600462001a99565b62000c1d565b6200019a6200021b36600462001db6565b620011d9565b60008262000230816004541190565b620002855760405160e560020a62461bcd02815260206004820152600f60248201527f496e76616c69642073746f72654964000000000000000000000000000000000060448201526064015b60405180910390fd5b8333600160a060020a031660048281548110620002a657620002a662001ddd565b6000918252602090912060016009909202010154600160a060020a031614620002fb576040517f39218f3b00000000000000000000000000000000000000000000000000000000815260040160405180910390fd5b836004868154811062000312576200031262001ddd565b906000526020600020906009020160020160006101000a815481600160e060020a030219169083600160e060020a0316021790555060019250505092915050565b6200037860405180606001604052806060815260200160608152602001606081525090565b6004805480602002602001604051908101604052809291908181526020016000905b82821015620005835760008481526020908190206040805160a081018252600986029092018054600160a060020a039081168452600182015416938301939093526002830154600160e060020a031682820152805160608181019092526003840180549394939285019282908290620004139062001df6565b80601f0160208091040260200160405190810160405280929190818152602001828054620004419062001df6565b8015620004925780601f10620004665761010080835404028352916020019162000492565b820191906000526020600020905b8154815290600101906020018083116200047457829003601f168201915b50505050508152602001600182018054620004ad9062001df6565b80601f0160208091040260200160405190810160405280929190818152602001828054620004db9062001df6565b80156200052c5780601f1062000500576101008083540402835291602001916200052c565b820191906000526020600020905b8154815290600101906020018083116200050e57829003601f168201915b50505091835250506002919091015460ff166020918201529082526040805160608101825260068501548152600785015481840152600890940154908401529081019190915290825260019290920191016200039a565b50505090825250600380546040805160208084028201810190925282815292919060009084015b8282101562000619576000848152602090819020604080516060810182526002860290920180548352600190810154600160a060020a0381168486015274010000000000000000000000000000000000000000900460ff161515918301919091529083529092019101620005aa565b505050506020808301919091526005805460408051828502810185019091528181529260009084015b828210156200068f57600084815260209081902060408051808201909152600285029091018054600160a060020a0390811683526001918201541682840152908352909201910162000642565b50505050604082015290565b6000620006a762001236565b60035482908110620006e9576040517f1ea95154000000000000000000000000000000000000000000000000000000008152600481018290526024016200027c565b60038181548110620006ff57620006ff62001ddd565b906000526020600020906002020160010160149054906101000a900460ff16620007405760405160e560020a62461bcd0281526004016200027c9062001e2f565b60006003848154811062000758576200075862001ddd565b906000526020600020906002020160010160146101000a81548160ff021916908315150217905550600191505b50919050565b3360008181526006602090815260408083208151808301909252805482526001015460ff161515918101829052919291906200090d57604080518082018252600554815260016020808301828152600160a060020a0387811660009081526006909352858320945185559051938301805460ff191694151594909417909355905460025493519193908316921690620008249062001a73565b600160a060020a03928316815291166020820152604001604051809103906000f08015801562000858573d6000803e3d6000fd5b5060408051808201909152600160a060020a0380861682529182166020820190815260058054600181018255600091909152915160029092027f036b6384b5eca791c62761152d0c79bb0604c104a5fb6f4eb0703f3154bb3db08101805493851673ffffffffffffffffffffffffffffffffffffffff1994851617905590517f036b6384b5eca791c62761152d0c79bb0604c104a5fb6f4eb0703f3154bb3db190910180549190931691161790555062000959565b60405160e560020a62461bcd02815260206004820152600d60248201527f5857616c6c65742065786973740000000000000000000000000000000000000060448201526064016200027c565b60019250505090565b6200096c62001236565b6200097860006200127e565b565b60006200098662001236565b60035483908110620009c8576040517f1ea95154000000000000000000000000000000000000000000000000000000008152600481018290526024016200027c565b60038181548110620009de57620009de62001ddd565b906000526020600020906002020160010160149054906101000a900460ff1662000a1f5760405160e560020a62461bcd0281526004016200027c9062001e2f565b60006003858154811062000a375762000a3762001ddd565b6000918252602082206001600290920201015460ff740100000000000000000000000000000000000000009091048116925085161562000a7957600162000a7c565b60005b90508162000ae25760008560ff161162000adc5760405160e560020a62461bcd02815260206004820152601360248201527f416c72656164792064656163746976617465640000000000000000000000000060448201526064016200027c565b62000b38565b60ff85161562000b385760405160e560020a62461bcd02815260206004820152601160248201527f416c72656164792061637469766174656400000000000000000000000000000060448201526064016200027c565b806003878154811062000b4f5762000b4f62001ddd565b906000526020600020906002020160010160146101000a81548160ff0219169083151502179055506001935050505092915050565b60008362000b93816004541190565b62000be45760405160e560020a62461bcd02815260206004820152600f60248201527f496e76616c69642073746f72654964000000000000000000000000000000000060448201526064016200027c565b62000bf285853386620012db565b506001949350505050565b600062000c0962001236565b62000c148262001963565b5060015b919050565b6003546000908390811062000c62576040517f1ea95154000000000000000000000000000000000000000000000000000000008152600481018290526024016200027c565b6003818154811062000c785762000c7862001ddd565b906000526020600020906002020160010160149054906101000a900460ff1662000cb95760405160e560020a62461bcd0281526004016200027c9062001e2f565b600062000cc68562001a38565b90506000336040517fdd62ed3e000000000000000000000000000000000000000000000000000000008152600160a060020a03808316600483015230602483018190529293506000919085169063dd62ed3e90604401602060405180830381865afa15801562000d3a573d6000803e3d6000fd5b505050506040513d601f19601f8201168201806040525081019062000d60919062001e66565b6004549091508162000db85760405160e560020a62461bcd02815260206004820152601c60248201527f53746f726546726f6e743a205175616e7469747920746f6f206c6f770000000060448201526064016200027c565b60046040518060a0016040528087600160a060020a0316815260200186600160a060020a031681526020018a600160e060020a03168152602001604051806060016040528089600160a060020a03166306fdde036040518163ffffffff1660e060020a028152600401600060405180830381865afa15801562000e3f573d6000803e3d6000fd5b505050506040513d6000823e601f3d908101601f1916820160405262000e69919081019062001e99565b815260200189600160a060020a03166395d89b416040518163ffffffff1660e060020a028152600401600060405180830381865afa15801562000eb0573d6000803e3d6000fd5b505050506040513d6000823e601f3d908101601f1916820160405262000eda919081019062001e99565b815260200189600160a060020a031663313ce5676040518163ffffffff1660e060020a028152600401602060405180830381865afa15801562000f21573d6000803e3d6000fd5b505050506040513d601f19601f8201168201806040525081019062000f47919062001f52565b60ff16815250815260200160405180606001604052808681526020018d815260200185815250815250908060018154018082558091505060019003906000526020600020906009020160009091909190915060008201518160000160006101000a815481600160a060020a030219169083600160a060020a0316021790555060208201518160010160006101000a815481600160a060020a030219169083600160a060020a0316021790555060408201518160020160006101000a815481600160e060020a030219169083600160e060020a03160217905550606082015181600301600082015181600001908162001040919062001fc5565b506020820151600182019062001057908262001fc5565b506040918201516002909101805460ff90921660ff19909216919091179055608092909201518051600683015560208101516007830155820151600890910155517f6375005112faeb3c31f129d3aa24c423df50ca6f7c78b0490c6f4b691feac38a90620010da908b908890918252600160a060020a0316602082015260400190565b60405180910390a16040517f23b872dd000000000000000000000000000000000000000000000000000000008152600160a060020a0385811660048301528481166024830152604482018490528616906323b872dd906064016020604051808303816000875af115801562001153573d6000803e3d6000fd5b505050506040513d601f19601f8201168201806040525081019062001179919062002098565b620011ca5760405160e560020a62461bcd02815260206004820152601360248201527f5472616e7366657246726f6d206661696c65640000000000000000000000000060448201526064016200027c565b50600198975050505050505050565b620011e362001236565b600160a060020a03811662001228576040517f1e4fbdf7000000000000000000000000000000000000000000000000000000008152600060048201526024016200027c565b62001233816200127e565b50565b600054600160a060020a0316331462000978576040517f118cdaa70000000000000000000000000000000000000000000000000000000081523360048201526024016200027c565b60008054600160a060020a0383811673ffffffffffffffffffffffffffffffffffffffff19831681178455604051919092169283917f8be0079c531659141344cd1fd0a4f28419497f9722a3daafe3b4186f6b6457e09190a35050565b600160a060020a0382166000908152600660205260408120546005805490919081106200130c576200130c62001ddd565b6000918252602090912060016002909202010154600160a060020a03169050806200137d5760405160e560020a62461bcd02815260206004820152601360248201527f4e6f207857616c6c65742064657465637465640000000000000000000000000060448201526064016200027c565b62001389856004541190565b156200192a57600060048681548110620013a757620013a762001ddd565b60009182526020918290206040805160a08101825260099093029091018054600160a060020a039081168452600182015416938301939093526002830154600160e060020a031682820152805160608181019092526003840180549394939285019282908290620014189062001df6565b80601f0160208091040260200160405190810160405280929190818152602001828054620014469062001df6565b8015620014975780601f106200146b5761010080835404028352916020019162001497565b820191906000526020600020905b8154815290600101906020018083116200147957829003601f168201915b50505050508152602001600182018054620014b29062001df6565b80601f0160208091040260200160405190810160405280929190818152602001828054620014e09062001df6565b8015620015315780601f10620015055761010080835404028352916020019162001531565b820191906000526020600020905b8154815290600101906020018083116200151357829003601f168201915b50505091835250506002919091015460ff16602091820152908252604080516060810182526006850154815260078501548184015260089094015484820152910191909152810151909150600160e060020a0316831015620015d95760405160e560020a62461bcd02815260206004820152601260248201527f4f66666572507269636520746f6f206c6f77000000000000000000000000000060448201526064016200027c565b608081015151600160e060020a03861611620018f157608081015151600160e060020a0386168085029167016345785d8a0000916200161891620020d5565b600489815481106200162e576200162e62001ddd565b60009182526020909120600660099092020101556200164e8183620020f1565b6001546040517f70a08231000000000000000000000000000000000000000000000000000000008152600160a060020a038781166004830152909116906370a0823190602401602060405180830381865afa158015620016b2573d6000803e3d6000fd5b505050506040513d601f19601f82011682018060405250810190620016d8919062001e66565b10156200172b5760405160e560020a62461bcd02815260206004820152601660248201527f496e73756666696369656e742062616c20696e2078770000000000000000000060448201526064016200027c565b60208301516040517f6be8d561000000000000000000000000000000000000000000000000000000008152600160a060020a039182166004820152602481018490526044810183905290851690636be8d561906064016020604051808303816000875af1158015620017a1573d6000803e3d6000fd5b505050506040513d601f19601f82011682018060405250810190620017c7919062002098565b620018185760405160e560020a62461bcd02815260206004820152601860248201527f5857616c6c65743a205472616e73666572206661696c6564000000000000000060448201526064016200027c565b82516040517fa9059cbb000000000000000000000000000000000000000000000000000000008152600160a060020a038881166004830152600160e060020a038a1660248301529091169063a9059cbb906044016020604051808303816000875af11580156200188c573d6000803e3d6000fd5b505050506040513d601f19601f82011682018060405250810190620018b2919062002098565b620018e9576040517f4c9b841900000000000000000000000000000000000000000000000000000000815260040160405180910390fd5b505062001923565b6040517f0511ed7500000000000000000000000000000000000000000000000000000000815260040160405180910390fd5b506200195c565b6040517fbbdc89a700000000000000000000000000000000000000000000000000000000815260040160405180910390fd5b5050505050565b60006200196f60035490565b60408051606081018252918252600160a060020a03938416602083019081526001918301828152600380549384018155600052925160029092027fc2575a0e9e593c00f959f8c92f12db2869c3395a3b0502d05e2516446f71f85b810192909255517fc2575a0e9e593c00f959f8c92f12db2869c3395a3b0502d05e2516446f71f85c909101805492511515740100000000000000000000000000000000000000000274ffffffffffffffffffffffffffffffffffffffffff1990931691909416171790915550565b60006003828154811062001a505762001a5062001ddd565b6000918252602090912060016002909202010154600160a060020a031692915050565b610701806200210883390190565b8035600160e060020a038116811462000c1857600080fd5b6000806040838503121562001aad57600080fd5b8235915062001abf6020840162001a81565b90509250929050565b60005b8381101562001ae557818101518382015260200162001acb565b50506000910152565b6000815180845262001b0881602086016020860162001ac8565b601f01601f19169290920160200192915050565b600081518084526020808501945080840160005b8381101562001b6f5781518051885283810151600160a060020a0316848901526040908101511515908801526060909601959082019060010162001b30565b509495945050505050565b600081518084526020808501945080840160005b8381101562001b6f5781518051600160a060020a0390811689529084015116838801526040909601959082019060010162001b8e565b60006020808352608080840185516060808588015282825180855260a08901915060a08782028a01019450868401935060005b8181101562001cbd57609f198a8703018352845160e0600160a060020a03808351168952808b840151168b8a0152506040600160e060020a038184015116818a01528683015182888b0152805188848c015262001c596101408c018262001aee565b9350508b81015160df198b8503016101008c015262001c79848262001aee565b919092015160ff166101208b0152928a01518051998b01998a52602080820151908b0152604090810151990198909852509550938701939187019160010162001bf7565b505050848801519450601f1993508387840301604088015262001ce1838662001b1c565b945060408801519250838786030181880152505062001d01838262001b7a565b9695505050505050565b60006020828403121562001d1e57600080fd5b5035919050565b60ff811681146200123357600080fd5b6000806040838503121562001d4957600080fd5b82359150602083013562001d5d8162001d25565b809150509250929050565b60008060006060848603121562001d7e57600080fd5b8335925062001d906020850162001a81565b9150604084013590509250925092565b600160a060020a03811681146200123357600080fd5b60006020828403121562001dc957600080fd5b813562001dd68162001da0565b9392505050565b60e060020a634e487b7102600052603260045260246000fd5b60028104600182168062001e0b57607f821691505b602082108103620007855760e060020a634e487b7102600052602260045260246000fd5b6020808252600e908201527f41737365742064697361626c6564000000000000000000000000000000000000604082015260600190565b60006020828403121562001e7957600080fd5b5051919050565b60e060020a634e487b7102600052604160045260246000fd5b60006020828403121562001eac57600080fd5b815167ffffffffffffffff8082111562001ec557600080fd5b818401915084601f83011262001eda57600080fd5b81518181111562001eef5762001eef62001e80565b604051601f8201601f19908116603f0116810190838211818310171562001f1a5762001f1a62001e80565b8160405282815287602084870101111562001f3457600080fd5b62001f4783602083016020880162001ac8565b979650505050505050565b60006020828403121562001f6557600080fd5b815162001dd68162001d25565b601f82111562001fc0576000818152602081206020601f8601048101602086101562001f9b5750805b6020601f860104820191505b8181101562001fbc5782815560010162001fa7565b5050505b505050565b815167ffffffffffffffff81111562001fe25762001fe262001e80565b62001ffa8162001ff3845462001df6565b8462001f72565b602080601f831160018114620020365760008415620020195750858301515b60028086026008870290910a600019041982161786555062001fbc565b600085815260208120601f198616915b82811015620020675788860151825594840194600190910190840162002046565b50858210156200208857878501516008601f88160260020a60001904191681555b5050505050600202600101905550565b600060208284031215620020ab57600080fd5b8151801515811462001dd657600080fd5b60e060020a634e487b7102600052601160045260246000fd5b81810381811115620020eb57620020eb620020bc565b92915050565b80820180821115620020eb57620020eb620020bc56fe608060405234801561001057600080fd5b5060405161070138038061070183398101604081905261002f916101c2565b610040640100000000610152810204565b600160a060020a038116610088576040517f1e4fbdf7000000000000000000000000000000000000000000000000000000008152600060048201526024015b60405180910390fd5b61009a81640100000000610156810204565b50600160a060020a038216158015906100bb5750600160a060020a03811615155b610121576040517f08c379a000000000000000000000000000000000000000000000000000000000815260206004820152601b60248201527f496e697469616c204164647265737365732061726520656d7074790000000000604482015260640161007f565b60018054600160a060020a03938416600160a060020a031991821617909155600280549290931691161790556101f5565b3390565b60008054600160a060020a03838116600160a060020a0319831681178455604051919092169283917f8be0079c531659141344cd1fd0a4f28419497f9722a3daafe3b4186f6b6457e09190a35050565b8051600160a060020a03811681146101bd57600080fd5b919050565b600080604083850312156101d557600080fd5b6101de836101a6565b91506101ec602084016101a6565b90509250929050565b6104fd806102046000396000f3fe608060405234801561001057600080fd5b506004361061007e577c01000000000000000000000000000000000000000000000000000000006000350463017e7e5881146100835780631fccf672146100b35780636be8d561146100c6578063715018a6146100e95780638da5cb5b146100f3578063f2fde38b14610104575b600080fd5b60025461009690600160a060020a031681565b604051600160a060020a0390911681526020015b60405180910390f35b60015461009690600160a060020a031681565b6100d96100d4366004610437565b610117565b60405190151581526020016100aa565b6100f1610151565b005b600054600160a060020a0316610096565b6100f161011236600461046a565b610165565b60006101216101c1565b811561013d5760025461013d90600160a060020a031683610207565b6101478484610207565b5060019392505050565b6101596101c1565b61016360006103be565b565b61016d6101c1565b600160a060020a0381166101b5576040517f1e4fbdf7000000000000000000000000000000000000000000000000000000008152600060048201526024015b60405180910390fd5b6101be816103be565b50565b600054600160a060020a03163314610163576040517f118cdaa70000000000000000000000000000000000000000000000000000000081523360048201526024016101ac565b6001546040517f70a082310000000000000000000000000000000000000000000000000000000081523060048201528291600160a060020a0316906370a0823190602401602060405180830381865afa158015610268573d6000803e3d6000fd5b505050506040513d601f19601f8201168201806040525081019061028c919061048c565b10156102c4576040517ff4d678b800000000000000000000000000000000000000000000000000000000815260040160405180910390fd5b6001546040517fa9059cbb000000000000000000000000000000000000000000000000000000008152600160a060020a038481166004830152602482018490529091169063a9059cbb906044016020604051808303816000875af1158015610330573d6000803e3d6000fd5b505050506040513d601f19601f8201168201806040525081019061035491906104a5565b6103ba576040517f08c379a000000000000000000000000000000000000000000000000000000000815260206004820152601860248201527f5857616c6c65743a205472616e73666572206661696c6564000000000000000060448201526064016101ac565b5050565b60008054600160a060020a0383811673ffffffffffffffffffffffffffffffffffffffff19831681178455604051919092169283917f8be0079c531659141344cd1fd0a4f28419497f9722a3daafe3b4186f6b6457e09190a35050565b8035600160a060020a038116811461043257600080fd5b919050565b60008060006060848603121561044c57600080fd5b6104558461041b565b95602085013595506040909401359392505050565b60006020828403121561047c57600080fd5b6104858261041b565b9392505050565b60006020828403121561049e57600080fd5b5051919050565b6000602082840312156104b757600080fd5b8151801515811461048557600080fdfea2646970667358221220f9eabb22d2bd4b72430f1c2a657098995dd9d318ea9a31d0bc870549f2824d3464736f6c63430008140033a2646970667358221220f82385ed02cfc7144111119f8eb7f7acbb5efea249b6f4f707d9cfb5dc196cd564736f6c63430008140033",
  "devdoc": {
    "errors": {
      "OwnableInvalidOwner(address)": [
        {
          "details": "The owner is not a valid owner account. (eg. `address(0)`)"
        }
      ],
      "OwnableUnauthorizedAccount(address)": [
        {
          "details": "The caller account is not authorized to perform an operation."
        }
      ]
    },
    "kind": "dev",
    "methods": {
      "addItemToStoreFront(uint256,uint224)": {
        "details": "Add item to storeFront",
        "params": {
          "assetId": ": Identifier for the verified asset listed on the frontend. This should correspond to the id on the smart contract.",
          "priceLimit": ": Lowest price at which trade should execute. Price should be denominated in cUSD using 18 decimals. Example: If the price for an item is 0.1cUSD, it should be written as 1e17 wei or equivalently 100000000000000000 otherwise, we will have a very inconsistent figures."
        }
      },
      "buy(uint256,uint224,uint256)": {
        "details": "Buyer purchases token",
        "params": {
          "amount": ": Quantity of token/coin to buy",
          "offerPrice": ": Price they're willing to offer. Note: Price must be greater than minimum listed price.",
          "storeId": ": Store Id"
        }
      },
      "createXWallet()": {
        "details": "Initializes a new xwallet"
      },
      "editPriceLimit(uint256,uint224)": {
        "details": "Only store owner function: Change price limit i.e lower price an asset can be sold",
        "params": {
          "newPriceLimit": ": Required: Lowest price to activate trade for asset.",
          "storeId": ": Required: Store Id. Every Seller maintain a store with a reference Id. Sellers must know where their items are stacked."
        }
      },
      "editSupportAsset(uint256,uint8)": {
        "details": "Only owner function: Owner can activate or deactivate asset",
        "params": {
          "assetId": ": Asset Id to update.",
          "value": ": Value to set for asset. If '0' asset is deactivated otherwise activated."
        }
      },
      "getData()": {
        "details": "Readonly: Return data from storage"
      },
      "owner()": {
        "details": "Returns the address of the current owner."
      },
      "renounceOwnership()": {
        "details": "Leaves the contract without owner. It will not be possible to call `onlyOwner` functions. Can only be called by the current owner. NOTE: Renouncing ownership will leave the contract without an owner, thereby disabling any functionality that is only available to the owner."
      },
      "transferOwnership(address)": {
        "details": "Transfers ownership of the contract to a new account (`newOwner`). Can only be called by the current owner."
      },
      "unSupportAsset(uint256)": {
        "details": "Unsupport asset",
        "params": {
          "assetId": ": Asset Id"
        }
      }
    },
    "stateVariables": {
      "storeFront": {
        "details": "Array of storeItems "
      },
      "supportedAssets": {
        "details": "Supported assets"
      }
    },
    "version": 1
  },
  "userdoc": {
    "kind": "user",
    "methods": {
      "setSupportedAsset(address)": {
        "notice": "See _setSupportedAsset"
      }
    },
    "version": 1
  },
  "storageLayout": {
    "storage": [
      {
        "astId": 8,
        "contract": "contracts/Registry.sol:Registry",
        "label": "_owner",
        "offset": 0,
        "slot": "0",
        "type": "t_address"
      },
      {
        "astId": 954,
        "contract": "contracts/Registry.sol:Registry",
        "label": "cUSD",
        "offset": 0,
        "slot": "1",
        "type": "t_address"
      },
      {
        "astId": 956,
        "contract": "contracts/Registry.sol:Registry",
        "label": "feeTo",
        "offset": 0,
        "slot": "2",
        "type": "t_address"
      },
      {
        "astId": 961,
        "contract": "contracts/Registry.sol:Registry",
        "label": "supportedAssets",
        "offset": 0,
        "slot": "3",
        "type": "t_array(t_struct(SupportedAsset)1964_storage)dyn_storage"
      },
      {
        "astId": 966,
        "contract": "contracts/Registry.sol:Registry",
        "label": "storeFront",
        "offset": 0,
        "slot": "4",
        "type": "t_array(t_struct(StoreData)1942_storage)dyn_storage"
      },
      {
        "astId": 970,
        "contract": "contracts/Registry.sol:Registry",
        "label": "xWallets",
        "offset": 0,
        "slot": "5",
        "type": "t_array(t_struct(Wallet)1969_storage)dyn_storage"
      },
      {
        "astId": 975,
        "contract": "contracts/Registry.sol:Registry",
        "label": "walletInfo",
        "offset": 0,
        "slot": "6",
        "type": "t_mapping(t_address,t_struct(WalletInfo)1974_storage)"
      }
    ],
    "types": {
      "t_address": {
        "encoding": "inplace",
        "label": "address",
        "numberOfBytes": "20"
      },
      "t_array(t_struct(StoreData)1942_storage)dyn_storage": {
        "base": "t_struct(StoreData)1942_storage",
        "encoding": "dynamic_array",
        "label": "struct IRegistry.StoreData[]",
        "numberOfBytes": "32"
      },
      "t_array(t_struct(SupportedAsset)1964_storage)dyn_storage": {
        "base": "t_struct(SupportedAsset)1964_storage",
        "encoding": "dynamic_array",
        "label": "struct IRegistry.SupportedAsset[]",
        "numberOfBytes": "32"
      },
      "t_array(t_struct(Wallet)1969_storage)dyn_storage": {
        "base": "t_struct(Wallet)1969_storage",
        "encoding": "dynamic_array",
        "label": "struct IRegistry.Wallet[]",
        "numberOfBytes": "32"
      },
      "t_bool": {
        "encoding": "inplace",
        "label": "bool",
        "numberOfBytes": "1"
      },
      "t_contract(IERC20)877": {
        "encoding": "inplace",
        "label": "contract IERC20",
        "numberOfBytes": "20"
      },
      "t_mapping(t_address,t_struct(WalletInfo)1974_storage)": {
        "encoding": "mapping",
        "key": "t_address",
        "label": "mapping(address => struct IRegistry.WalletInfo)",
        "numberOfBytes": "32",
        "value": "t_struct(WalletInfo)1974_storage"
      },
      "t_string_storage": {
        "encoding": "bytes",
        "label": "string",
        "numberOfBytes": "32"
      },
      "t_struct(AssetMetadata)1956_storage": {
        "encoding": "inplace",
        "label": "struct IRegistry.AssetMetadata",
        "members": [
          {
            "astId": 1951,
            "contract": "contracts/Registry.sol:Registry",
            "label": "name",
            "offset": 0,
            "slot": "0",
            "type": "t_string_storage"
          },
          {
            "astId": 1953,
            "contract": "contracts/Registry.sol:Registry",
            "label": "symbol",
            "offset": 0,
            "slot": "1",
            "type": "t_string_storage"
          },
          {
            "astId": 1955,
            "contract": "contracts/Registry.sol:Registry",
            "label": "decimals",
            "offset": 0,
            "slot": "2",
            "type": "t_uint8"
          }
        ],
        "numberOfBytes": "96"
      },
      "t_struct(StoreData)1942_storage": {
        "encoding": "inplace",
        "label": "struct IRegistry.StoreData",
        "members": [
          {
            "astId": 1931,
            "contract": "contracts/Registry.sol:Registry",
            "label": "asset",
            "offset": 0,
            "slot": "0",
            "type": "t_address"
          },
          {
            "astId": 1933,
            "contract": "contracts/Registry.sol:Registry",
            "label": "seller",
            "offset": 0,
            "slot": "1",
            "type": "t_address"
          },
          {
            "astId": 1935,
            "contract": "contracts/Registry.sol:Registry",
            "label": "priceLimit",
            "offset": 0,
            "slot": "2",
            "type": "t_uint224"
          },
          {
            "astId": 1938,
            "contract": "contracts/Registry.sol:Registry",
            "label": "metadata",
            "offset": 0,
            "slot": "3",
            "type": "t_struct(AssetMetadata)1956_storage"
          },
          {
            "astId": 1941,
            "contract": "contracts/Registry.sol:Registry",
            "label": "info",
            "offset": 0,
            "slot": "6",
            "type": "t_struct(StoreInfo)1949_storage"
          }
        ],
        "numberOfBytes": "288"
      },
      "t_struct(StoreInfo)1949_storage": {
        "encoding": "inplace",
        "label": "struct IRegistry.StoreInfo",
        "members": [
          {
            "astId": 1944,
            "contract": "contracts/Registry.sol:Registry",
            "label": "quantity",
            "offset": 0,
            "slot": "0",
            "type": "t_uint256"
          },
          {
            "astId": 1946,
            "contract": "contracts/Registry.sol:Registry",
            "label": "assetId",
            "offset": 0,
            "slot": "1",
            "type": "t_uint256"
          },
          {
            "astId": 1948,
            "contract": "contracts/Registry.sol:Registry",
            "label": "storeId",
            "offset": 0,
            "slot": "2",
            "type": "t_uint256"
          }
        ],
        "numberOfBytes": "96"
      },
      "t_struct(SupportedAsset)1964_storage": {
        "encoding": "inplace",
        "label": "struct IRegistry.SupportedAsset",
        "members": [
          {
            "astId": 1958,
            "contract": "contracts/Registry.sol:Registry",
            "label": "assetId",
            "offset": 0,
            "slot": "0",
            "type": "t_uint256"
          },
          {
            "astId": 1961,
            "contract": "contracts/Registry.sol:Registry",
            "label": "asset",
            "offset": 0,
            "slot": "1",
            "type": "t_contract(IERC20)877"
          },
          {
            "astId": 1963,
            "contract": "contracts/Registry.sol:Registry",
            "label": "isVerified",
            "offset": 20,
            "slot": "1",
            "type": "t_bool"
          }
        ],
        "numberOfBytes": "64"
      },
      "t_struct(Wallet)1969_storage": {
        "encoding": "inplace",
        "label": "struct IRegistry.Wallet",
        "members": [
          {
            "astId": 1966,
            "contract": "contracts/Registry.sol:Registry",
            "label": "owner",
            "offset": 0,
            "slot": "0",
            "type": "t_address"
          },
          {
            "astId": 1968,
            "contract": "contracts/Registry.sol:Registry",
            "label": "xWallet",
            "offset": 0,
            "slot": "1",
            "type": "t_address"
          }
        ],
        "numberOfBytes": "64"
      },
      "t_struct(WalletInfo)1974_storage": {
        "encoding": "inplace",
        "label": "struct IRegistry.WalletInfo",
        "members": [
          {
            "astId": 1971,
            "contract": "contracts/Registry.sol:Registry",
            "label": "id",
            "offset": 0,
            "slot": "0",
            "type": "t_uint256"
          },
          {
            "astId": 1973,
            "contract": "contracts/Registry.sol:Registry",
            "label": "hasWallet",
            "offset": 0,
            "slot": "1",
            "type": "t_bool"
          }
        ],
        "numberOfBytes": "64"
      },
      "t_uint224": {
        "encoding": "inplace",
        "label": "uint224",
        "numberOfBytes": "28"
      },
      "t_uint256": {
        "encoding": "inplace",
        "label": "uint256",
        "numberOfBytes": "32"
      },
      "t_uint8": {
        "encoding": "inplace",
        "label": "uint8",
        "numberOfBytes": "1"
      }
    }
  }
}