{
  "address": "0xEc48D7Fca0eAdC791f325B7FB48BD9298636d57A",
  "abi": [
    {
      "inputs": [
        {
          "internalType": "contract IERC20[]",
          "name": "_supportedAssets",
          "type": "address[]"
        },
        {
          "internalType": "uint8[]",
          "name": "_categories",
          "type": "uint8[]"
        },
        {
          "internalType": "address",
          "name": "_cUSD",
          "type": "address"
        },
        {
          "internalType": "address",
          "name": "_feeReceiver",
          "type": "address"
        }
      ],
      "stateMutability": "nonpayable",
      "type": "constructor"
    },
    {
      "inputs": [],
      "name": "AssetTransferFailed",
      "type": "error"
    },
    {
      "inputs": [
        {
          "internalType": "uint256",
          "name": "assetId",
          "type": "uint256"
        }
      ],
      "name": "InvalidAssetId",
      "type": "error"
    },
    {
      "inputs": [],
      "name": "InvalidStoreId",
      "type": "error"
    },
    {
      "inputs": [],
      "name": "NotPermitted",
      "type": "error"
    },
    {
      "inputs": [
        {
          "internalType": "address",
          "name": "owner",
          "type": "address"
        }
      ],
      "name": "OwnableInvalidOwner",
      "type": "error"
    },
    {
      "inputs": [
        {
          "internalType": "address",
          "name": "account",
          "type": "address"
        }
      ],
      "name": "OwnableUnauthorizedAccount",
      "type": "error"
    },
    {
      "inputs": [],
      "name": "TokenBalanceInStoreTooLow",
      "type": "error"
    },
    {
      "anonymous": false,
      "inputs": [
        {
          "indexed": false,
          "internalType": "uint256",
          "name": "itemId",
          "type": "uint256"
        },
        {
          "indexed": false,
          "internalType": "contract IERC20",
          "name": "asset",
          "type": "address"
        }
      ],
      "name": "ItemAdded",
      "type": "event"
    },
    {
      "anonymous": false,
      "inputs": [
        {
          "indexed": false,
          "internalType": "uint256",
          "name": "itemId",
          "type": "uint256"
        },
        {
          "indexed": false,
          "internalType": "contract IERC20",
          "name": "asset",
          "type": "address"
        }
      ],
      "name": "ItemRemoved",
      "type": "event"
    },
    {
      "anonymous": false,
      "inputs": [
        {
          "indexed": true,
          "internalType": "address",
          "name": "previousOwner",
          "type": "address"
        },
        {
          "indexed": true,
          "internalType": "address",
          "name": "newOwner",
          "type": "address"
        }
      ],
      "name": "OwnershipTransferred",
      "type": "event"
    },
    {
      "inputs": [
        {
          "internalType": "uint256",
          "name": "assetId",
          "type": "uint256"
        },
        {
          "internalType": "uint224",
          "name": "priceLimit",
          "type": "uint224"
        }
      ],
      "name": "addItemToStoreFront",
      "outputs": [
        {
          "internalType": "bool",
          "name": "",
          "type": "bool"
        }
      ],
      "stateMutability": "nonpayable",
      "type": "function"
    },
    {
      "inputs": [
        {
          "internalType": "uint256",
          "name": "storeId",
          "type": "uint256"
        },
        {
          "internalType": "uint224",
          "name": "amount",
          "type": "uint224"
        },
        {
          "internalType": "uint256",
          "name": "offerPrice",
          "type": "uint256"
        }
      ],
      "name": "buy",
      "outputs": [
        {
          "internalType": "bool",
          "name": "",
          "type": "bool"
        }
      ],
      "stateMutability": "nonpayable",
      "type": "function"
    },
    {
      "inputs": [],
      "name": "cUSD",
      "outputs": [
        {
          "internalType": "address",
          "name": "",
          "type": "address"
        }
      ],
      "stateMutability": "view",
      "type": "function"
    },
    {
      "inputs": [],
      "name": "createXWallet",
      "outputs": [
        {
          "internalType": "bool",
          "name": "",
          "type": "bool"
        }
      ],
      "stateMutability": "nonpayable",
      "type": "function"
    },
    {
      "inputs": [
        {
          "internalType": "uint256",
          "name": "storeId",
          "type": "uint256"
        },
        {
          "internalType": "uint224",
          "name": "newPriceLimit",
          "type": "uint224"
        }
      ],
      "name": "editPriceLimit",
      "outputs": [
        {
          "internalType": "bool",
          "name": "",
          "type": "bool"
        }
      ],
      "stateMutability": "nonpayable",
      "type": "function"
    },
    {
      "inputs": [
        {
          "internalType": "uint256",
          "name": "assetId",
          "type": "uint256"
        },
        {
          "internalType": "uint8",
          "name": "value",
          "type": "uint8"
        }
      ],
      "name": "editSupportAsset",
      "outputs": [
        {
          "internalType": "bool",
          "name": "",
          "type": "bool"
        }
      ],
      "stateMutability": "nonpayable",
      "type": "function"
    },
    {
      "inputs": [],
      "name": "feeTo",
      "outputs": [
        {
          "internalType": "address",
          "name": "",
          "type": "address"
        }
      ],
      "stateMutability": "view",
      "type": "function"
    },
    {
      "inputs": [],
      "name": "getData",
      "outputs": [
        {
          "components": [
            {
              "components": [
                {
                  "internalType": "address",
                  "name": "asset",
                  "type": "address"
                },
                {
                  "internalType": "address",
                  "name": "seller",
                  "type": "address"
                },
                {
                  "internalType": "uint224",
                  "name": "priceLimit",
                  "type": "uint224"
                },
                {
                  "components": [
                    {
                      "internalType": "string",
                      "name": "name",
                      "type": "string"
                    },
                    {
                      "internalType": "string",
                      "name": "symbol",
                      "type": "string"
                    },
                    {
                      "internalType": "uint8",
                      "name": "decimals",
                      "type": "uint8"
                    },
                    {
                      "internalType": "enum IRegistry.Category",
                      "name": "category",
                      "type": "uint8"
                    }
                  ],
                  "internalType": "struct IRegistry.AssetMetadata",
                  "name": "metadata",
                  "type": "tuple"
                },
                {
                  "components": [
                    {
                      "internalType": "uint256",
                      "name": "quantity",
                      "type": "uint256"
                    },
                    {
                      "internalType": "uint256",
                      "name": "assetId",
                      "type": "uint256"
                    },
                    {
                      "internalType": "uint256",
                      "name": "storeId",
                      "type": "uint256"
                    }
                  ],
                  "internalType": "struct IRegistry.StoreInfo",
                  "name": "info",
                  "type": "tuple"
                }
              ],
              "internalType": "struct IRegistry.StoreData[]",
              "name": "stores",
              "type": "tuple[]"
            },
            {
              "components": [
                {
                  "internalType": "uint256",
                  "name": "assetId",
                  "type": "uint256"
                },
                {
                  "internalType": "contract IERC20",
                  "name": "asset",
                  "type": "address"
                },
                {
                  "internalType": "bool",
                  "name": "isVerified",
                  "type": "bool"
                },
                {
                  "internalType": "enum IRegistry.Category",
                  "name": "category",
                  "type": "uint8"
                },
                {
                  "internalType": "string",
                  "name": "name",
                  "type": "string"
                }
              ],
              "internalType": "struct IRegistry.SupportedAsset[]",
              "name": "supportedAssets",
              "type": "tuple[]"
            },
            {
              "components": [
                {
                  "internalType": "address",
                  "name": "owner",
                  "type": "address"
                },
                {
                  "internalType": "address",
                  "name": "xWallet",
                  "type": "address"
                }
              ],
              "internalType": "struct IRegistry.Wallet[]",
              "name": "xWallets",
              "type": "tuple[]"
            }
          ],
          "internalType": "struct IRegistry.Storage",
          "name": "stg",
          "type": "tuple"
        }
      ],
      "stateMutability": "view",
      "type": "function"
    },
    {
      "inputs": [],
      "name": "owner",
      "outputs": [
        {
          "internalType": "address",
          "name": "",
          "type": "address"
        }
      ],
      "stateMutability": "view",
      "type": "function"
    },
    {
      "inputs": [],
      "name": "renounceOwnership",
      "outputs": [],
      "stateMutability": "nonpayable",
      "type": "function"
    },
    {
      "inputs": [
        {
          "internalType": "contract IERC20",
          "name": "_asset",
          "type": "address"
        },
        {
          "internalType": "uint8",
          "name": "category",
          "type": "uint8"
        }
      ],
      "name": "setSupportedAsset",
      "outputs": [
        {
          "internalType": "bool",
          "name": "",
          "type": "bool"
        }
      ],
      "stateMutability": "nonpayable",
      "type": "function"
    },
    {
      "inputs": [
        {
          "internalType": "address",
          "name": "newOwner",
          "type": "address"
        }
      ],
      "name": "transferOwnership",
      "outputs": [],
      "stateMutability": "nonpayable",
      "type": "function"
    },
    {
      "inputs": [
        {
          "internalType": "uint256",
          "name": "assetId",
          "type": "uint256"
        }
      ],
      "name": "unSupportAsset",
      "outputs": [
        {
          "internalType": "bool",
          "name": "",
          "type": "bool"
        }
      ],
      "stateMutability": "nonpayable",
      "type": "function"
    }
  ],
  "transactionHash": "0x2224e4ca75a9dee1df7934b14121e34413854b911ec9bd929a888f822249eaab",
  "args": [
    [
      "0x4E2004f1c71746538BAD1e558801a51b1070429c",
      "0x9C71EeE166664788D227b6C22834177a6f257b11",
      "0x5F53315200F94C1E64aF1980492BEd0848069017",
      "0x9880F3326171D82a463D92DEb02aCBC53E0c0EF4",
      "0x9f499BB0bD44e142f1438BcBe3489750A04e5456",
      "0xC98a5683db5Ce0E0AFc997e58262c846280462D7",
      "0x7Bc75C3BCA2CaA6eb81B7e0271F104894E4AE19c",
      "0xdc1846e361e4d92f7e15d236459e9b0446Ba029D",
      "0x5eACAf9eeE54A77890f0dB91FD4b0493c283F00D",
      "0x9F37299Ee967B0bC9BCAA803E7FC23f71Faad029"
    ],
    [
      0,
      1,
      2,
      3,
      4,
      5,
      6,
      7,
      8,
      9
    ],
    "0x874069Fa1Eb16D44d622F2e0Ca25eeA172369bC1",
    "0xf74C14ACC935a4d5053aa31952D2a256C138b5D9"
  ],
  "numDeployments": 2,
  "solcInputHash": "0ae5e3cf3be8ca1ff3c7e21468d47731",
  "bytecode": "0x60806040523480156200001157600080fd5b50604051620035e8380380620035e88339810160408190526200003491620005d7565b338062000075576040517f1e4fbdf7000000000000000000000000000000000000000000000000000000008152600060048201526024015b60405180910390fd5b620000898164010000000062000287810204565b50600160a060020a03821615801590620000ab5750600160a060020a03811615155b600160a060020a03831615620000f7576040518060400160405280601381526020017f496e76616c6964204665655265636569766572000000000000000000000000008152506200012e565b6040518060400160405280601481526020017f696e76616c6964204355534420616464726573730000000000000000000000008152505b9062000169576040517f08c379a00000000000000000000000000000000000000000000000000000000081526004016200006c9190620006f1565b5060018054600160a060020a03808516600160a060020a0319928316179092556002805492841692909116919091179055835183511462000207576040517f08c379a000000000000000000000000000000000000000000000000000000000815260206004820152600f60248201527f4c656e677468206d69736d61746368000000000000000000000000000000000060448201526064016200006c565b60005b84518110156200027c57620002678582815181106200022d576200022d62000726565b60200260200101518583815181106200024a576200024a62000726565b6020026020010151620002d7640100000000026401000000009004565b80620002738162000755565b9150506200020a565b5050505050620009d9565b60008054600160a060020a03838116600160a060020a0319831681178455604051919092169283917f8be0079c531659141344cd1fd0a4f28419497f9722a3daafe3b4186f6b6457e09190a35050565b6000620002ec6401000000006200049d810204565b905060036040518060a0016040528083815260200185600160a060020a031681526020016001151581526020018460ff16600981111562000331576200033162000796565b600981111562000345576200034562000796565b815260200185600160a060020a03166395d89b416040518163ffffffff167c0100000000000000000000000000000000000000000000000000000000028152600401600060405180830381865afa158015620003a5573d6000803e3d6000fd5b505050506040513d6000823e601f3d908101601f19168201604052620003cf9190810190620007c5565b905281546001818101845560009384526020938490208351600390930201918255928201519281018054604084015115157401000000000000000000000000000000000000000002600160a860020a0319909116600160a060020a039095169490941793909317808455606083015192939192919060a860020a60ff02191675010000000000000000000000000000000000000000008360098111156200047a576200047a62000796565b02179055506080820151600282019062000495908262000907565b505050505050565b60035490565b7f4e487b7100000000000000000000000000000000000000000000000000000000600052604160045260246000fd5b604051601f8201601f191681016001604060020a0381118282101715620004fd57620004fd620004a3565b604052919050565b60006001604060020a03821115620005215762000521620004a3565b5060209081020190565b600160a060020a03811681146200054157600080fd5b50565b600082601f8301126200055657600080fd5b815160206200056f620005698362000505565b620004d2565b828152918102840181019181810190868411156200058c57600080fd5b8286015b84811015620005ba57805160ff81168114620005ac5760008081fd5b835291830191830162000590565b509695505050505050565b8051620005d2816200052b565b919050565b60008060008060808587031215620005ee57600080fd5b84516001604060020a03808211156200060657600080fd5b818701915087601f8301126200061b57600080fd5b815160206200062e620005698362000505565b8281529181028401810191818101908b8411156200064b57600080fd5b948201945b838610156200067657855162000666816200052b565b8252948201949082019062000650565b918a01519198509093505050808211156200069057600080fd5b506200069f8782880162000544565b935050620006b060408601620005c5565b9150620006c060608601620005c5565b905092959194509250565b60005b83811015620006e8578181015183820152602001620006ce565b50506000910152565b602081526000825180602084015262000712816040850160208701620006cb565b601f01601f19169190910160400192915050565b7f4e487b7100000000000000000000000000000000000000000000000000000000600052603260045260246000fd5b6000600182016200078f577f4e487b7100000000000000000000000000000000000000000000000000000000600052601160045260246000fd5b5060010190565b7f4e487b7100000000000000000000000000000000000000000000000000000000600052602160045260246000fd5b600060208284031215620007d857600080fd5b81516001604060020a0380821115620007f057600080fd5b818401915084601f8301126200080557600080fd5b8151818111156200081a576200081a620004a3565b6200082f601f8201601f1916602001620004d2565b91508082528560208285010111156200084757600080fd5b6200085a816020840160208601620006cb565b50949350505050565b6002810460018216806200087857607f821691505b602082108103620008b2577f4e487b7100000000000000000000000000000000000000000000000000000000600052602260045260246000fd5b50919050565b601f82111562000902576000818152602081206020601f86010481016020861015620008e15750805b6020601f860104820191505b818110156200049557828155600101620008ed565b505050565b81516001604060020a03811115620009235762000923620004a3565b6200093b8162000934845462000863565b84620008b8565b602080601f8311600181146200097757600084156200095a5750858301515b60028086026008870290910a600019041982161786555062000495565b600085815260208120601f198616915b82811015620009a85788860151825594840194600190910190840162000987565b5085821015620009c957878501516008601f88160260020a60001904191681555b5050505050600202600101905550565b612bff80620009e96000396000f3fe60806040523480156200001157600080fd5b5060043610620000e45760003560e060020a90048063715018a6116200009b57806396fde8e9116200007257806396fde8e914620001c55780639ca1977514620001dc578063e489b71014620001f3578063f2fde38b146200020a57600080fd5b8063715018a614620001905780638da5cb5b146200019c5780638f2349f814620001ae57600080fd5b8063017e7e5814620000e957806313e5b327146200011a5780631fccf67214620001425780633bc5de30146200015657806356f8e2e8146200016f5780636fd661e41462000186575b600080fd5b600254620000fd90600160a060020a031681565b604051600160a060020a0390911681526020015b60405180910390f35b620001316200012b36600462001d87565b62000221565b604051901515815260200162000111565b600154620000fd90600160a060020a031681565b6200016062000353565b60405162000111919062001f41565b6200013162000180366004620020a3565b620007c9565b62000131620008b9565b6200019a62000a90565b005b600054600160a060020a0316620000fd565b62000131620001bf366004620020cd565b62000aa8565b62000131620001d636600462002100565b62000cb2565b62000131620001ed3660046200214e565b62000d2b565b620001316200020436600462001d87565b62000d4d565b6200019a6200021b36600462002181565b62001351565b60008262000230816004541190565b620002855760405160e560020a62461bcd02815260206004820152600f60248201527f496e76616c69642073746f72654964000000000000000000000000000000000060448201526064015b60405180910390fd5b8333600160a060020a031660048281548110620002a657620002a6620021a8565b6000918252602090912060016009909202010154600160a060020a031614620002fb576040517f39218f3b00000000000000000000000000000000000000000000000000000000815260040160405180910390fd5b8360048681548110620003125762000312620021a8565b906000526020600020906009020160020160006101000a815481600160e060020a030219169083600160e060020a0316021790555060019250505092915050565b6200037860405180606001604052806060815260200160608152602001606081525090565b6004805480602002602001604051908101604052809291908181526020016000905b82821015620005c45760008481526020908190206040805160a081018252600986029092018054600160a060020a039081168452600182015416938301939093526002830154600160e060020a03168282015280516080810190915260038301805492939260608501929190829082906200041590620021c1565b80601f01602080910402602001604051908101604052809291908181526020018280546200044390620021c1565b8015620004945780601f10620004685761010080835404028352916020019162000494565b820191906000526020600020905b8154815290600101906020018083116200047657829003601f168201915b50505050508152602001600182018054620004af90620021c1565b80601f0160208091040260200160405190810160405280929190818152602001828054620004dd90620021c1565b80156200052e5780601f1062000502576101008083540402835291602001916200052e565b820191906000526020600020905b8154815290600101906020018083116200051057829003601f168201915b5050509183525050600282015460ff808216602084015260409092019161010090910416600981111562000566576200056662001e0a565b60098111156200057a576200057a62001e0a565b81525050815260200160068201604051806060016040529081600082015481526020016001820154815260200160028201548152505081525050815260200190600101906200039a565b50505090825250600380546040805160208084028201810190925282815292919060009084015b82821015620007475760008481526020908190206040805160a08101825260038602909201805483526001810154600160a060020a0381169484019490945260ff740100000000000000000000000000000000000000008504811615159284019290925291926060840191750100000000000000000000000000000000000000000090910416600981111562000685576200068562001e0a565b600981111562000699576200069962001e0a565b8152602001600282018054620006af90620021c1565b80601f0160208091040260200160405190810160405280929190818152602001828054620006dd90620021c1565b80156200072e5780601f1062000702576101008083540402835291602001916200072e565b820191906000526020600020905b8154815290600101906020018083116200071057829003601f168201915b50505050508152505081526020019060010190620005eb565b505050506020808301919091526005805460408051828502810185019091528181529260009084015b82821015620007bd57600084815260209081902060408051808201909152600285029091018054600160a060020a0390811683526001918201541682840152908352909201910162000770565b50505050604082015290565b6000620007d5620013ae565b6003548290811062000817576040517f1ea95154000000000000000000000000000000000000000000000000000000008152600481018290526024016200027c565b600381815481106200082d576200082d620021a8565b906000526020600020906003020160010160149054906101000a900460ff166200086e5760405160e560020a62461bcd0281526004016200027c90620021fa565b600060038481548110620008865762000886620021a8565b906000526020600020906003020160010160146101000a81548160ff021916908315150217905550600191505b50919050565b3360008181526006602090815260408083208151808301909252805482526001015460ff1615159181018290529192919062000a3b57604080518082018252600554815260016020808301828152600160a060020a0387811660009081526006909352858320945185559051938301805460ff191694151594909417909355905460025493519193908316921690620009529062001d5c565b600160a060020a03928316815291166020820152604001604051809103906000f08015801562000986573d6000803e3d6000fd5b5060408051808201909152600160a060020a0380861682529182166020820190815260058054600181018255600091909152915160029092027f036b6384b5eca791c62761152d0c79bb0604c104a5fb6f4eb0703f3154bb3db08101805493851673ffffffffffffffffffffffffffffffffffffffff1994851617905590517f036b6384b5eca791c62761152d0c79bb0604c104a5fb6f4eb0703f3154bb3db190910180549190931691161790555062000a87565b60405160e560020a62461bcd02815260206004820152600d60248201527f5857616c6c65742065786973740000000000000000000000000000000000000060448201526064016200027c565b60019250505090565b62000a9a620013ae565b62000aa66000620013f6565b565b600062000ab4620013ae565b6003548390811062000af6576040517f1ea95154000000000000000000000000000000000000000000000000000000008152600481018290526024016200027c565b6003818154811062000b0c5762000b0c620021a8565b906000526020600020906003020160010160149054906101000a900460ff1662000b4d5760405160e560020a62461bcd0281526004016200027c90620021fa565b60006003858154811062000b655762000b65620021a8565b6000918252602082206001600390920201015460ff740100000000000000000000000000000000000000009091048116925085161562000ba757600162000baa565b60005b90508162000c105760008560ff161162000c0a5760405160e560020a62461bcd02815260206004820152601360248201527f416c72656164792064656163746976617465640000000000000000000000000060448201526064016200027c565b62000c66565b60ff85161562000c665760405160e560020a62461bcd02815260206004820152601160248201527f416c72656164792061637469766174656400000000000000000000000000000060448201526064016200027c565b806003878154811062000c7d5762000c7d620021a8565b906000526020600020906003020160010160146101000a81548160ff0219169083151502179055506001935050505092915050565b60008362000cc1816004541190565b62000d125760405160e560020a62461bcd02815260206004820152600f60248201527f496e76616c69642073746f72654964000000000000000000000000000000000060448201526064016200027c565b62000d208585338662001453565b506001949350505050565b600062000d37620013ae565b62000d43838362001b1f565b5060015b92915050565b6003546000908390811062000d92576040517f1ea95154000000000000000000000000000000000000000000000000000000008152600481018290526024016200027c565b6003818154811062000da85762000da8620021a8565b906000526020600020906003020160010160149054906101000a900460ff1662000de95760405160e560020a62461bcd0281526004016200027c90620021fa565b60008062000df78662001ce0565b91509150600062000e053390565b6040517fdd62ed3e000000000000000000000000000000000000000000000000000000008152600160a060020a03808316600483015230602483018190529293506000919086169063dd62ed3e90604401602060405180830381865afa15801562000e74573d6000803e3d6000fd5b505050506040513d601f19601f8201168201806040525081019062000e9a919062002231565b6004549091508162000ef25760405160e560020a62461bcd02815260206004820152601c60248201527f53746f726546726f6e743a205175616e7469747920746f6f206c6f770000000060448201526064016200027c565b60046040518060a0016040528088600160a060020a0316815260200186600160a060020a031681526020018b600160e060020a0316815260200160405180608001604052808a600160a060020a03166306fdde036040518163ffffffff1660e060020a028152600401600060405180830381865afa15801562000f79573d6000803e3d6000fd5b505050506040513d6000823e601f3d908101601f1916820160405262000fa3919081019062002264565b81526020018a600160a060020a03166395d89b416040518163ffffffff1660e060020a028152600401600060405180830381865afa15801562000fea573d6000803e3d6000fd5b505050506040513d6000823e601f3d908101601f1916820160405262001014919081019062002264565b81526020018a600160a060020a031663313ce5676040518163ffffffff1660e060020a028152600401602060405180830381865afa1580156200105b573d6000803e3d6000fd5b505050506040513d601f19601f820116820180604052508101906200108191906200231d565b60ff1681526020018960098111156200109e576200109e62001e0a565b815250815260200160405180606001604052808681526020018e815260200185815250815250908060018154018082558091505060019003906000526020600020906009020160009091909190915060008201518160000160006101000a815481600160a060020a030219169083600160a060020a0316021790555060208201518160010160006101000a815481600160a060020a030219169083600160a060020a0316021790555060408201518160020160006101000a815481600160e060020a030219169083600160e060020a0316021790555060608201518160030160008201518160000190816200119491906200238c565b5060208201516001820190620011ab90826200238c565b50604082015160028201805460ff90921660ff1983168117825560608501519261ffff191617610100836009811115620011e957620011e962001e0a565b021790555050506080919091015180516006830155602080820151600784015560409182015160089093019290925580518c8152600160a060020a038916928101929092527f6375005112faeb3c31f129d3aa24c423df50ca6f7c78b0490c6f4b691feac38a910160405180910390a16040517f23b872dd000000000000000000000000000000000000000000000000000000008152600160a060020a0385811660048301528481166024830152604482018490528716906323b872dd906064016020604051808303816000875af1158015620012ca573d6000803e3d6000fd5b505050506040513d601f19601f82011682018060405250810190620012f091906200245f565b620013415760405160e560020a62461bcd02815260206004820152601360248201527f5472616e7366657246726f6d206661696c65640000000000000000000000000060448201526064016200027c565b5060019998505050505050505050565b6200135b620013ae565b600160a060020a038116620013a0576040517f1e4fbdf7000000000000000000000000000000000000000000000000000000008152600060048201526024016200027c565b620013ab81620013f6565b50565b600054600160a060020a0316331462000aa6576040517f118cdaa70000000000000000000000000000000000000000000000000000000081523360048201526024016200027c565b60008054600160a060020a0383811673ffffffffffffffffffffffffffffffffffffffff19831681178455604051919092169283917f8be0079c531659141344cd1fd0a4f28419497f9722a3daafe3b4186f6b6457e09190a35050565b600160a060020a038216600090815260066020526040812054600580549091908110620014845762001484620021a8565b6000918252602090912060016002909202010154600160a060020a0316905080620014f55760405160e560020a62461bcd02815260206004820152601360248201527f4e6f207857616c6c65742064657465637465640000000000000000000000000060448201526064016200027c565b62001501856004541190565b1562001ae6576000600486815481106200151f576200151f620021a8565b60009182526020918290206040805160a08101825260099093029091018054600160a060020a039081168452600182015416938301939093526002830154600160e060020a03168282015280516080810190915260038301805492939260608501929190829082906200159290620021c1565b80601f0160208091040260200160405190810160405280929190818152602001828054620015c090620021c1565b8015620016115780601f10620015e55761010080835404028352916020019162001611565b820191906000526020600020905b815481529060010190602001808311620015f357829003601f168201915b505050505081526020016001820180546200162c90620021c1565b80601f01602080910402602001604051908101604052809291908181526020018280546200165a90620021c1565b8015620016ab5780601f106200167f57610100808354040283529160200191620016ab565b820191906000526020600020905b8154815290600101906020018083116200168d57829003601f168201915b5050509183525050600282015460ff8082166020840152604090920191610100909104166009811115620016e357620016e362001e0a565b6009811115620016f757620016f762001e0a565b8152505081526020016006820160405180606001604052908160008201548152602001600182015481526020016002820154815250508152505090508060400151600160e060020a0316831015620017955760405160e560020a62461bcd02815260206004820152601260248201527f4f66666572507269636520746f6f206c6f77000000000000000000000000000060448201526064016200027c565b608081015151600160e060020a0386161162001aad57608081015151600160e060020a0386168085029167016345785d8a000091620017d4916200249c565b60048981548110620017ea57620017ea620021a8565b60009182526020909120600660099092020101556200180a8183620024b2565b6001546040517f70a08231000000000000000000000000000000000000000000000000000000008152600160a060020a038781166004830152909116906370a0823190602401602060405180830381865afa1580156200186e573d6000803e3d6000fd5b505050506040513d601f19601f8201168201806040525081019062001894919062002231565b1015620018e75760405160e560020a62461bcd02815260206004820152601660248201527f496e73756666696369656e742062616c20696e2078770000000000000000000060448201526064016200027c565b60208301516040517f6be8d561000000000000000000000000000000000000000000000000000000008152600160a060020a039182166004820152602481018490526044810183905290851690636be8d561906064016020604051808303816000875af11580156200195d573d6000803e3d6000fd5b505050506040513d601f19601f820116820180604052508101906200198391906200245f565b620019d45760405160e560020a62461bcd02815260206004820152601860248201527f5857616c6c65743a205472616e73666572206661696c6564000000000000000060448201526064016200027c565b82516040517fa9059cbb000000000000000000000000000000000000000000000000000000008152600160a060020a038881166004830152600160e060020a038a1660248301529091169063a9059cbb906044016020604051808303816000875af115801562001a48573d6000803e3d6000fd5b505050506040513d601f19601f8201168201806040525081019062001a6e91906200245f565b62001aa5576040517f4c9b841900000000000000000000000000000000000000000000000000000000815260040160405180910390fd5b505062001adf565b6040517f0511ed7500000000000000000000000000000000000000000000000000000000815260040160405180910390fd5b5062001b18565b6040517fbbdc89a700000000000000000000000000000000000000000000000000000000815260040160405180910390fd5b5050505050565b600062001b2b60035490565b905060036040518060a0016040528083815260200185600160a060020a031681526020016001151581526020018460ff16600981111562001b705762001b7062001e0a565b600981111562001b845762001b8462001e0a565b815260200185600160a060020a03166395d89b416040518163ffffffff1660e060020a028152600401600060405180830381865afa15801562001bcb573d6000803e3d6000fd5b505050506040513d6000823e601f3d908101601f1916820160405262001bf5919081019062002264565b90528154600181810184556000938452602093849020835160039093020191825592820151928101805460408401511515740100000000000000000000000000000000000000000274ffffffffffffffffffffffffffffffffffffffffff19909116600160a060020a039095169490941793909317808455606083015192939192919075ff0000000000000000000000000000000000000000001916750100000000000000000000000000000000000000000083600981111562001cbd5762001cbd62001e0a565b02179055506080820151600282019062001cd890826200238c565b505050505050565b6000806003838154811062001cf95762001cf9620021a8565b906000526020600020906003020160010160009054906101000a9004600160a060020a031691506003838154811062001d365762001d36620021a8565b906000526020600020906003020160010160159054906101000a900460ff169050915091565b61070180620024c983390190565b8035600160e060020a038116811462001d8257600080fd5b919050565b6000806040838503121562001d9b57600080fd5b8235915062001dad6020840162001d6a565b90509250929050565b60005b8381101562001dd357818101518382015260200162001db9565b50506000910152565b6000815180845262001df681602086016020860162001db6565b601f01601f19169290920160200192915050565b60e060020a634e487b7102600052602160045260246000fd5b600a811062001e455760e060020a634e487b7102600052602160045260246000fd5b9052565b600081518084526020808501808196508284028101915082860160005b8581101562001edf578284038952815160a081518652600160a060020a038783015116878701526040808301511515818801525060608083015162001eae8289018262001e23565b505060809182015191860181905262001eca8682018362001ddc565b9a87019a955050509084019060010162001e66565b5091979650505050505050565b600081518084526020808501945080840160005b8381101562001f365781518051600160a060020a0390811689529084015116838801526040909601959082019060010162001f00565b509495945050505050565b60006020808352608080840185516060808588015282825180855260a08901915060a08782028a01019450868401935060005b818110156200205557609f198a8703018352845160e0600160a060020a03808351168952808b840151168b8a0152506040600160e060020a038184015116818a01528683015182888b015280518b848c015262001fd66101608c018262001ddc565b9350508b81015160df198b8503016101008c015262001ff6848262001ddc565b9282015160ff166101208c0152508701519091506200201a6101408a018262001e23565b50908801519062002041888a01838051825260208082015190830152604090810151910152565b965050938701939187019160010162001f74565b505050848801519450601f1993508387840301604088015262002079838662001e49565b945060408801519250838786030181880152505062002099838262001eec565b9695505050505050565b600060208284031215620020b657600080fd5b5035919050565b60ff81168114620013ab57600080fd5b60008060408385031215620020e157600080fd5b823591506020830135620020f581620020bd565b809150509250929050565b6000806000606084860312156200211657600080fd5b83359250620021286020850162001d6a565b9150604084013590509250925092565b600160a060020a0381168114620013ab57600080fd5b600080604083850312156200216257600080fd5b82356200216f8162002138565b91506020830135620020f581620020bd565b6000602082840312156200219457600080fd5b8135620021a18162002138565b9392505050565b60e060020a634e487b7102600052603260045260246000fd5b600281046001821680620021d657607f821691505b602082108103620008b35760e060020a634e487b7102600052602260045260246000fd5b6020808252600e908201527f41737365742064697361626c6564000000000000000000000000000000000000604082015260600190565b6000602082840312156200224457600080fd5b5051919050565b60e060020a634e487b7102600052604160045260246000fd5b6000602082840312156200227757600080fd5b815167ffffffffffffffff808211156200229057600080fd5b818401915084601f830112620022a557600080fd5b815181811115620022ba57620022ba6200224b565b604051601f8201601f19908116603f01168101908382118183101715620022e557620022e56200224b565b81604052828152876020848701011115620022ff57600080fd5b6200231283602083016020880162001db6565b979650505050505050565b6000602082840312156200233057600080fd5b8151620021a181620020bd565b601f82111562002387576000818152602081206020601f86010481016020861015620023665750805b6020601f860104820191505b8181101562001cd85782815560010162002372565b505050565b815167ffffffffffffffff811115620023a957620023a96200224b565b620023c181620023ba8454620021c1565b846200233d565b602080601f831160018114620023fd5760008415620023e05750858301515b60028086026008870290910a600019041982161786555062001cd8565b600085815260208120601f198616915b828110156200242e578886015182559484019460019091019084016200240d565b50858210156200244f57878501516008601f88160260020a60001904191681555b5050505050600202600101905550565b6000602082840312156200247257600080fd5b81518015158114620021a157600080fd5b60e060020a634e487b7102600052601160045260246000fd5b8181038181111562000d475762000d4762002483565b8082018082111562000d475762000d476200248356fe608060405234801561001057600080fd5b5060405161070138038061070183398101604081905261002f916101c2565b610040640100000000610152810204565b600160a060020a038116610088576040517f1e4fbdf7000000000000000000000000000000000000000000000000000000008152600060048201526024015b60405180910390fd5b61009a81640100000000610156810204565b50600160a060020a038216158015906100bb5750600160a060020a03811615155b610121576040517f08c379a000000000000000000000000000000000000000000000000000000000815260206004820152601b60248201527f496e697469616c204164647265737365732061726520656d7074790000000000604482015260640161007f565b60018054600160a060020a03938416600160a060020a031991821617909155600280549290931691161790556101f5565b3390565b60008054600160a060020a03838116600160a060020a0319831681178455604051919092169283917f8be0079c531659141344cd1fd0a4f28419497f9722a3daafe3b4186f6b6457e09190a35050565b8051600160a060020a03811681146101bd57600080fd5b919050565b600080604083850312156101d557600080fd5b6101de836101a6565b91506101ec602084016101a6565b90509250929050565b6104fd806102046000396000f3fe608060405234801561001057600080fd5b506004361061007e577c01000000000000000000000000000000000000000000000000000000006000350463017e7e5881146100835780631fccf672146100b35780636be8d561146100c6578063715018a6146100e95780638da5cb5b146100f3578063f2fde38b14610104575b600080fd5b60025461009690600160a060020a031681565b604051600160a060020a0390911681526020015b60405180910390f35b60015461009690600160a060020a031681565b6100d96100d4366004610437565b610117565b60405190151581526020016100aa565b6100f1610151565b005b600054600160a060020a0316610096565b6100f161011236600461046a565b610165565b60006101216101c1565b811561013d5760025461013d90600160a060020a031683610207565b6101478484610207565b5060019392505050565b6101596101c1565b61016360006103be565b565b61016d6101c1565b600160a060020a0381166101b5576040517f1e4fbdf7000000000000000000000000000000000000000000000000000000008152600060048201526024015b60405180910390fd5b6101be816103be565b50565b600054600160a060020a03163314610163576040517f118cdaa70000000000000000000000000000000000000000000000000000000081523360048201526024016101ac565b6001546040517f70a082310000000000000000000000000000000000000000000000000000000081523060048201528291600160a060020a0316906370a0823190602401602060405180830381865afa158015610268573d6000803e3d6000fd5b505050506040513d601f19601f8201168201806040525081019061028c919061048c565b10156102c4576040517ff4d678b800000000000000000000000000000000000000000000000000000000815260040160405180910390fd5b6001546040517fa9059cbb000000000000000000000000000000000000000000000000000000008152600160a060020a038481166004830152602482018490529091169063a9059cbb906044016020604051808303816000875af1158015610330573d6000803e3d6000fd5b505050506040513d601f19601f8201168201806040525081019061035491906104a5565b6103ba576040517f08c379a000000000000000000000000000000000000000000000000000000000815260206004820152601860248201527f5857616c6c65743a205472616e73666572206661696c6564000000000000000060448201526064016101ac565b5050565b60008054600160a060020a0383811673ffffffffffffffffffffffffffffffffffffffff19831681178455604051919092169283917f8be0079c531659141344cd1fd0a4f28419497f9722a3daafe3b4186f6b6457e09190a35050565b8035600160a060020a038116811461043257600080fd5b919050565b60008060006060848603121561044c57600080fd5b6104558461041b565b95602085013595506040909401359392505050565b60006020828403121561047c57600080fd5b6104858261041b565b9392505050565b60006020828403121561049e57600080fd5b5051919050565b6000602082840312156104b757600080fd5b8151801515811461048557600080fdfea264697066735822122025e661380c420169288d595ea86fe475b42e20a371085bbd59246a0aadd890a864736f6c63430008140033a26469706673582212203ee8779d2ef13aaba03d64c9bbae0296a759aa69338c9c537683d75a4b96a21864736f6c63430008140033",
  "devdoc": {
    "errors": {
      "OwnableInvalidOwner(address)": [
        {
          "details": "The owner is not a valid owner account. (eg. `address(0)`)"
        }
      ],
      "OwnableUnauthorizedAccount(address)": [
        {
          "details": "The caller account is not authorized to perform an operation."
        }
      ]
    },
    "kind": "dev",
    "methods": {
      "addItemToStoreFront(uint256,uint224)": {
        "details": "Add item to storeFront",
        "params": {
          "assetId": ": Identifier for the verified asset listed on the frontend. This should correspond to the id on the smart contract.",
          "priceLimit": ": Lowest price at which trade should execute. Price should be denominated in cUSD using 18 decimals. Example: If the price for an item is 0.1cUSD, it should be written as 1e17 wei or equivalently 100000000000000000 otherwise, we will have a very inconsistent figures.  Note: Sellers are required to pay fees in CUSD as a prerequisite to adding asset to storeFront.       Seller should fund their onchain Wallet before making this call.       =========== THIS IS FUNCTION RESERVED TO BE IMPLEMENTED IN THE FUTURE=============="
        }
      },
      "buy(uint256,uint224,uint256)": {
        "details": "Buyer purchases token",
        "params": {
          "amount": ": Quantity of token/coin to buy",
          "offerPrice": ": Price they're willing to offer. Note: Price must be greater than minimum listed price.",
          "storeId": ": Store Id"
        }
      },
      "createXWallet()": {
        "details": "Initializes a new xwallet"
      },
      "editPriceLimit(uint256,uint224)": {
        "details": "Only store owner function: Change price limit i.e lower price an asset can be sold",
        "params": {
          "newPriceLimit": ": Required: Lowest price to activate trade for asset.",
          "storeId": ": Required: Store Id. Every Seller maintain a store with a reference Id. Sellers must know where their items are stacked."
        }
      },
      "editSupportAsset(uint256,uint8)": {
        "details": "Only owner function: Owner can activate or deactivate asset",
        "params": {
          "assetId": ": Asset Id to update.",
          "value": ": Value to set for asset. If '0' asset is deactivated otherwise activated."
        }
      },
      "getData()": {
        "details": "Readonly: Return data from storage"
      },
      "owner()": {
        "details": "Returns the address of the current owner."
      },
      "renounceOwnership()": {
        "details": "Leaves the contract without owner. It will not be possible to call `onlyOwner` functions. Can only be called by the current owner. NOTE: Renouncing ownership will leave the contract without an owner, thereby disabling any functionality that is only available to the owner."
      },
      "transferOwnership(address)": {
        "details": "Transfers ownership of the contract to a new account (`newOwner`). Can only be called by the current owner."
      },
      "unSupportAsset(uint256)": {
        "details": "Unsupport asset",
        "params": {
          "assetId": ": Asset Id"
        }
      }
    },
    "stateVariables": {
      "storeFront": {
        "details": "Array of storeItems "
      },
      "supportedAssets": {
        "details": "Supported assets"
      }
    },
    "version": 1
  },
  "userdoc": {
    "kind": "user",
    "methods": {
      "setSupportedAsset(address,uint8)": {
        "notice": "See _setSupportedAsset"
      }
    },
    "version": 1
  },
  "storageLayout": {
    "storage": [
      {
        "astId": 8,
        "contract": "contracts/Registry.sol:Registry",
        "label": "_owner",
        "offset": 0,
        "slot": "0",
        "type": "t_address"
      },
      {
        "astId": 954,
        "contract": "contracts/Registry.sol:Registry",
        "label": "cUSD",
        "offset": 0,
        "slot": "1",
        "type": "t_address"
      },
      {
        "astId": 956,
        "contract": "contracts/Registry.sol:Registry",
        "label": "feeTo",
        "offset": 0,
        "slot": "2",
        "type": "t_address"
      },
      {
        "astId": 961,
        "contract": "contracts/Registry.sol:Registry",
        "label": "supportedAssets",
        "offset": 0,
        "slot": "3",
        "type": "t_array(t_struct(SupportedAsset)1911_storage)dyn_storage"
      },
      {
        "astId": 966,
        "contract": "contracts/Registry.sol:Registry",
        "label": "storeFront",
        "offset": 0,
        "slot": "4",
        "type": "t_array(t_struct(StoreData)1881_storage)dyn_storage"
      },
      {
        "astId": 970,
        "contract": "contracts/Registry.sol:Registry",
        "label": "xWallets",
        "offset": 0,
        "slot": "5",
        "type": "t_array(t_struct(Wallet)1916_storage)dyn_storage"
      },
      {
        "astId": 975,
        "contract": "contracts/Registry.sol:Registry",
        "label": "walletInfo",
        "offset": 0,
        "slot": "6",
        "type": "t_mapping(t_address,t_struct(WalletInfo)1921_storage)"
      }
    ],
    "types": {
      "t_address": {
        "encoding": "inplace",
        "label": "address",
        "numberOfBytes": "20"
      },
      "t_array(t_struct(StoreData)1881_storage)dyn_storage": {
        "base": "t_struct(StoreData)1881_storage",
        "encoding": "dynamic_array",
        "label": "struct IRegistry.StoreData[]",
        "numberOfBytes": "32"
      },
      "t_array(t_struct(SupportedAsset)1911_storage)dyn_storage": {
        "base": "t_struct(SupportedAsset)1911_storage",
        "encoding": "dynamic_array",
        "label": "struct IRegistry.SupportedAsset[]",
        "numberOfBytes": "32"
      },
      "t_array(t_struct(Wallet)1916_storage)dyn_storage": {
        "base": "t_struct(Wallet)1916_storage",
        "encoding": "dynamic_array",
        "label": "struct IRegistry.Wallet[]",
        "numberOfBytes": "32"
      },
      "t_bool": {
        "encoding": "inplace",
        "label": "bool",
        "numberOfBytes": "1"
      },
      "t_contract(IERC20)877": {
        "encoding": "inplace",
        "label": "contract IERC20",
        "numberOfBytes": "20"
      },
      "t_enum(Category)1856": {
        "encoding": "inplace",
        "label": "enum IRegistry.Category",
        "numberOfBytes": "1"
      },
      "t_mapping(t_address,t_struct(WalletInfo)1921_storage)": {
        "encoding": "mapping",
        "key": "t_address",
        "label": "mapping(address => struct IRegistry.WalletInfo)",
        "numberOfBytes": "32",
        "value": "t_struct(WalletInfo)1921_storage"
      },
      "t_string_storage": {
        "encoding": "bytes",
        "label": "string",
        "numberOfBytes": "32"
      },
      "t_struct(AssetMetadata)1898_storage": {
        "encoding": "inplace",
        "label": "struct IRegistry.AssetMetadata",
        "members": [
          {
            "astId": 1890,
            "contract": "contracts/Registry.sol:Registry",
            "label": "name",
            "offset": 0,
            "slot": "0",
            "type": "t_string_storage"
          },
          {
            "astId": 1892,
            "contract": "contracts/Registry.sol:Registry",
            "label": "symbol",
            "offset": 0,
            "slot": "1",
            "type": "t_string_storage"
          },
          {
            "astId": 1894,
            "contract": "contracts/Registry.sol:Registry",
            "label": "decimals",
            "offset": 0,
            "slot": "2",
            "type": "t_uint8"
          },
          {
            "astId": 1897,
            "contract": "contracts/Registry.sol:Registry",
            "label": "category",
            "offset": 1,
            "slot": "2",
            "type": "t_enum(Category)1856"
          }
        ],
        "numberOfBytes": "96"
      },
      "t_struct(StoreData)1881_storage": {
        "encoding": "inplace",
        "label": "struct IRegistry.StoreData",
        "members": [
          {
            "astId": 1870,
            "contract": "contracts/Registry.sol:Registry",
            "label": "asset",
            "offset": 0,
            "slot": "0",
            "type": "t_address"
          },
          {
            "astId": 1872,
            "contract": "contracts/Registry.sol:Registry",
            "label": "seller",
            "offset": 0,
            "slot": "1",
            "type": "t_address"
          },
          {
            "astId": 1874,
            "contract": "contracts/Registry.sol:Registry",
            "label": "priceLimit",
            "offset": 0,
            "slot": "2",
            "type": "t_uint224"
          },
          {
            "astId": 1877,
            "contract": "contracts/Registry.sol:Registry",
            "label": "metadata",
            "offset": 0,
            "slot": "3",
            "type": "t_struct(AssetMetadata)1898_storage"
          },
          {
            "astId": 1880,
            "contract": "contracts/Registry.sol:Registry",
            "label": "info",
            "offset": 0,
            "slot": "6",
            "type": "t_struct(StoreInfo)1888_storage"
          }
        ],
        "numberOfBytes": "288"
      },
      "t_struct(StoreInfo)1888_storage": {
        "encoding": "inplace",
        "label": "struct IRegistry.StoreInfo",
        "members": [
          {
            "astId": 1883,
            "contract": "contracts/Registry.sol:Registry",
            "label": "quantity",
            "offset": 0,
            "slot": "0",
            "type": "t_uint256"
          },
          {
            "astId": 1885,
            "contract": "contracts/Registry.sol:Registry",
            "label": "assetId",
            "offset": 0,
            "slot": "1",
            "type": "t_uint256"
          },
          {
            "astId": 1887,
            "contract": "contracts/Registry.sol:Registry",
            "label": "storeId",
            "offset": 0,
            "slot": "2",
            "type": "t_uint256"
          }
        ],
        "numberOfBytes": "96"
      },
      "t_struct(SupportedAsset)1911_storage": {
        "encoding": "inplace",
        "label": "struct IRegistry.SupportedAsset",
        "members": [
          {
            "astId": 1900,
            "contract": "contracts/Registry.sol:Registry",
            "label": "assetId",
            "offset": 0,
            "slot": "0",
            "type": "t_uint256"
          },
          {
            "astId": 1903,
            "contract": "contracts/Registry.sol:Registry",
            "label": "asset",
            "offset": 0,
            "slot": "1",
            "type": "t_contract(IERC20)877"
          },
          {
            "astId": 1905,
            "contract": "contracts/Registry.sol:Registry",
            "label": "isVerified",
            "offset": 20,
            "slot": "1",
            "type": "t_bool"
          },
          {
            "astId": 1908,
            "contract": "contracts/Registry.sol:Registry",
            "label": "category",
            "offset": 21,
            "slot": "1",
            "type": "t_enum(Category)1856"
          },
          {
            "astId": 1910,
            "contract": "contracts/Registry.sol:Registry",
            "label": "name",
            "offset": 0,
            "slot": "2",
            "type": "t_string_storage"
          }
        ],
        "numberOfBytes": "96"
      },
      "t_struct(Wallet)1916_storage": {
        "encoding": "inplace",
        "label": "struct IRegistry.Wallet",
        "members": [
          {
            "astId": 1913,
            "contract": "contracts/Registry.sol:Registry",
            "label": "owner",
            "offset": 0,
            "slot": "0",
            "type": "t_address"
          },
          {
            "astId": 1915,
            "contract": "contracts/Registry.sol:Registry",
            "label": "xWallet",
            "offset": 0,
            "slot": "1",
            "type": "t_address"
          }
        ],
        "numberOfBytes": "64"
      },
      "t_struct(WalletInfo)1921_storage": {
        "encoding": "inplace",
        "label": "struct IRegistry.WalletInfo",
        "members": [
          {
            "astId": 1918,
            "contract": "contracts/Registry.sol:Registry",
            "label": "id",
            "offset": 0,
            "slot": "0",
            "type": "t_uint256"
          },
          {
            "astId": 1920,
            "contract": "contracts/Registry.sol:Registry",
            "label": "hasWallet",
            "offset": 0,
            "slot": "1",
            "type": "t_bool"
          }
        ],
        "numberOfBytes": "64"
      },
      "t_uint224": {
        "encoding": "inplace",
        "label": "uint224",
        "numberOfBytes": "28"
      },
      "t_uint256": {
        "encoding": "inplace",
        "label": "uint256",
        "numberOfBytes": "32"
      },
      "t_uint8": {
        "encoding": "inplace",
        "label": "uint8",
        "numberOfBytes": "1"
      }
    }
  }
}