{
  "address": "0x2244825808162650442A6fBD94358eD4A9fb9D8f",
  "abi": [
    {
      "inputs": [
        {
          "internalType": "string",
          "name": "tokenName",
          "type": "string"
        },
        {
          "internalType": "string",
          "name": "tokenSymbol",
          "type": "string"
        }
      ],
      "stateMutability": "nonpayable",
      "type": "constructor"
    },
    {
      "inputs": [
        {
          "internalType": "address",
          "name": "spender",
          "type": "address"
        },
        {
          "internalType": "uint256",
          "name": "allowance",
          "type": "uint256"
        },
        {
          "internalType": "uint256",
          "name": "needed",
          "type": "uint256"
        }
      ],
      "name": "ERC20InsufficientAllowance",
      "type": "error"
    },
    {
      "inputs": [
        {
          "internalType": "address",
          "name": "sender",
          "type": "address"
        },
        {
          "internalType": "uint256",
          "name": "balance",
          "type": "uint256"
        },
        {
          "internalType": "uint256",
          "name": "needed",
          "type": "uint256"
        }
      ],
      "name": "ERC20InsufficientBalance",
      "type": "error"
    },
    {
      "inputs": [
        {
          "internalType": "address",
          "name": "approver",
          "type": "address"
        }
      ],
      "name": "ERC20InvalidApprover",
      "type": "error"
    },
    {
      "inputs": [
        {
          "internalType": "address",
          "name": "receiver",
          "type": "address"
        }
      ],
      "name": "ERC20InvalidReceiver",
      "type": "error"
    },
    {
      "inputs": [
        {
          "internalType": "address",
          "name": "sender",
          "type": "address"
        }
      ],
      "name": "ERC20InvalidSender",
      "type": "error"
    },
    {
      "inputs": [
        {
          "internalType": "address",
          "name": "spender",
          "type": "address"
        }
      ],
      "name": "ERC20InvalidSpender",
      "type": "error"
    },
    {
      "anonymous": false,
      "inputs": [
        {
          "indexed": true,
          "internalType": "address",
          "name": "owner",
          "type": "address"
        },
        {
          "indexed": true,
          "internalType": "address",
          "name": "spender",
          "type": "address"
        },
        {
          "indexed": false,
          "internalType": "uint256",
          "name": "value",
          "type": "uint256"
        }
      ],
      "name": "Approval",
      "type": "event"
    },
    {
      "anonymous": false,
      "inputs": [
        {
          "indexed": true,
          "internalType": "address",
          "name": "from",
          "type": "address"
        },
        {
          "indexed": true,
          "internalType": "address",
          "name": "to",
          "type": "address"
        },
        {
          "indexed": false,
          "internalType": "uint256",
          "name": "value",
          "type": "uint256"
        }
      ],
      "name": "Transfer",
      "type": "event"
    },
    {
      "inputs": [],
      "name": "admin",
      "outputs": [
        {
          "internalType": "address",
          "name": "",
          "type": "address"
        }
      ],
      "stateMutability": "view",
      "type": "function"
    },
    {
      "inputs": [
        {
          "internalType": "address",
          "name": "owner",
          "type": "address"
        },
        {
          "internalType": "address",
          "name": "spender",
          "type": "address"
        }
      ],
      "name": "allowance",
      "outputs": [
        {
          "internalType": "uint256",
          "name": "",
          "type": "uint256"
        }
      ],
      "stateMutability": "view",
      "type": "function"
    },
    {
      "inputs": [
        {
          "internalType": "address",
          "name": "spender",
          "type": "address"
        },
        {
          "internalType": "uint256",
          "name": "value",
          "type": "uint256"
        }
      ],
      "name": "approve",
      "outputs": [
        {
          "internalType": "bool",
          "name": "",
          "type": "bool"
        }
      ],
      "stateMutability": "nonpayable",
      "type": "function"
    },
    {
      "inputs": [
        {
          "internalType": "address",
          "name": "account",
          "type": "address"
        }
      ],
      "name": "balanceOf",
      "outputs": [
        {
          "internalType": "uint256",
          "name": "",
          "type": "uint256"
        }
      ],
      "stateMutability": "view",
      "type": "function"
    },
    {
      "inputs": [],
      "name": "decimals",
      "outputs": [
        {
          "internalType": "uint8",
          "name": "",
          "type": "uint8"
        }
      ],
      "stateMutability": "view",
      "type": "function"
    },
    {
      "inputs": [
        {
          "internalType": "address",
          "name": "to",
          "type": "address"
        }
      ],
      "name": "mint",
      "outputs": [
        {
          "internalType": "bool",
          "name": "",
          "type": "bool"
        }
      ],
      "stateMutability": "nonpayable",
      "type": "function"
    },
    {
      "inputs": [],
      "name": "name",
      "outputs": [
        {
          "internalType": "string",
          "name": "",
          "type": "string"
        }
      ],
      "stateMutability": "view",
      "type": "function"
    },
    {
      "inputs": [],
      "name": "symbol",
      "outputs": [
        {
          "internalType": "string",
          "name": "",
          "type": "string"
        }
      ],
      "stateMutability": "view",
      "type": "function"
    },
    {
      "inputs": [],
      "name": "totalSupply",
      "outputs": [
        {
          "internalType": "uint256",
          "name": "",
          "type": "uint256"
        }
      ],
      "stateMutability": "view",
      "type": "function"
    },
    {
      "inputs": [
        {
          "internalType": "address",
          "name": "to",
          "type": "address"
        },
        {
          "internalType": "uint256",
          "name": "value",
          "type": "uint256"
        }
      ],
      "name": "transfer",
      "outputs": [
        {
          "internalType": "bool",
          "name": "",
          "type": "bool"
        }
      ],
      "stateMutability": "nonpayable",
      "type": "function"
    },
    {
      "inputs": [
        {
          "internalType": "address",
          "name": "from",
          "type": "address"
        },
        {
          "internalType": "address",
          "name": "to",
          "type": "address"
        },
        {
          "internalType": "uint256",
          "name": "value",
          "type": "uint256"
        }
      ],
      "name": "transferFrom",
      "outputs": [
        {
          "internalType": "bool",
          "name": "",
          "type": "bool"
        }
      ],
      "stateMutability": "nonpayable",
      "type": "function"
    }
  ],
  "transactionHash": "0x9e0ad212337a98f0597006d0f7f2bc1ed4e768b71917d6014034c74a0e19fd20",
  "args": [
    "Token9",
    "TNT9"
  ],
  "numDeployments": 31,
  "solcInputHash": "63613994655a94027a1c2c45b3f7377b",
  "bytecode": "0x60806040523480156200001157600080fd5b5060405162000e9138038062000e91833981016040819052620000349162000325565b8181600362000044838262000437565b50600462000053828262000437565b505060068054600160a060020a03191633908117909155692a5a058fc295ed00000060058190556200008f925064010000000062000097810204565b50506200054a565b600160a060020a038216620000e0576040517fec442f05000000000000000000000000000000000000000000000000000000008152600060048201526024015b60405180910390fd5b620000f760008383640100000000620000fb810204565b5050565b600160a060020a0383166200012a5780600260008282546200011e919062000509565b90915550620001b79050565b600160a060020a0383166000908152602081905260409020548181101562000198576040517fe450d38c000000000000000000000000000000000000000000000000000000008152600160a060020a03851660048201526024810182905260448101839052606401620000d7565b600160a060020a03841660009081526020819052604090209082900390555b600160a060020a038216620001d557600280548290039055620001f4565b600160a060020a03821660009081526020819052604090208054820190555b81600160a060020a031683600160a060020a03167fddf252ad1be2c89b69c2b068fc378daa952ba7f163c4a11628f55a4df523b3ef836040516200023a91815260200190565b60405180910390a3505050565b7f4e487b7100000000000000000000000000000000000000000000000000000000600052604160045260246000fd5b600082601f8301126200028857600080fd5b81516001604060020a0380821115620002a557620002a562000247565b604051601f8301601f19908116603f01168101908282118183101715620002d057620002d062000247565b81604052838152602092508683858801011115620002ed57600080fd5b600091505b83821015620003115785820183015181830184015290820190620002f2565b600093810190920192909252949350505050565b600080604083850312156200033957600080fd5b82516001604060020a03808211156200035157600080fd5b6200035f8683870162000276565b935060208501519150808211156200037657600080fd5b50620003858582860162000276565b9150509250929050565b600281046001821680620003a457607f821691505b602082108103620003de577f4e487b7100000000000000000000000000000000000000000000000000000000600052602260045260246000fd5b50919050565b601f82111562000432576000818152602081206020601f860104810160208610156200040d5750805b6020601f860104820191505b818110156200042e5782815560010162000419565b5050505b505050565b81516001604060020a0381111562000453576200045362000247565b6200046b816200046484546200038f565b84620003e4565b602080601f831160018114620004a757600084156200048a5750858301515b60028086026008870290910a60001904198216178655506200042e565b600085815260208120601f198616915b82811015620004d857888601518255948401946001909101908401620004b7565b5085821015620004f957878501516008601f88160260020a60001904191681555b5050505050600202600101905550565b8082018082111562000544577f4e487b7100000000000000000000000000000000000000000000000000000000600052601160045260246000fd5b92915050565b610937806200055a6000396000f3fe608060405234801561001057600080fd5b50600436106100c6576000357c0100000000000000000000000000000000000000000000000000000000900480636a6278421161008e5780636a6278421461014057806370a082311461015357806395d89b411461017c578063a9059cbb14610184578063dd62ed3e14610197578063f851a440146101d057600080fd5b806306fdde03146100cb578063095ea7b3146100e957806318160ddd1461010c57806323b872dd1461011e578063313ce56714610131575b600080fd5b6100d36101fb565b6040516100e0919061074f565b60405180910390f35b6100fc6100f73660046107b9565b61028d565b60405190151581526020016100e0565b6002545b6040519081526020016100e0565b6100fc61012c3660046107e3565b6102a7565b604051601281526020016100e0565b6100fc61014e36600461081f565b6102cb565b61011061016136600461081f565b600160a060020a031660009081526020819052604090205490565b6100d361035b565b6100fc6101923660046107b9565b61036a565b6101106101a5366004610841565b600160a060020a03918216600090815260016020908152604080832093909416825291909152205490565b6006546101e390600160a060020a031681565b604051600160a060020a0390911681526020016100e0565b60606003805461020a90610874565b80601f016020809104026020016040519081016040528092919081815260200182805461023690610874565b80156102835780601f1061025857610100808354040283529160200191610283565b820191906000526020600020905b81548152906001019060200180831161026657829003601f168201915b5050505050905090565b60003361029b818585610378565b60019150505b92915050565b6000336102b585828561038a565b6102c0858585610421565b506001949350505050565b600654600090600160a060020a03163314610347576040517f08c379a000000000000000000000000000000000000000000000000000000000815260206004820152600d60248201527f4e6f74207065726d69747465640000000000000000000000000000000000000060448201526064015b60405180910390fd5b610353826005546104b2565b506001919050565b60606004805461020a90610874565b60003361029b818585610421565b6103858383836001610505565b505050565b600160a060020a03838116600090815260016020908152604080832093861683529290522054600019811461041b578181101561040c576040517ffb8f41b2000000000000000000000000000000000000000000000000000000008152600160a060020a0384166004820152602481018290526044810183905260640161033e565b61041b84848484036000610505565b50505050565b600160a060020a038316610464576040517f96c6fd1e0000000000000000000000000000000000000000000000000000000081526000600482015260240161033e565b600160a060020a0382166104a7576040517fec442f050000000000000000000000000000000000000000000000000000000081526000600482015260240161033e565b61038583838361060c565b600160a060020a0382166104f5576040517fec442f050000000000000000000000000000000000000000000000000000000081526000600482015260240161033e565b6105016000838361060c565b5050565b600160a060020a038416610548576040517fe602df050000000000000000000000000000000000000000000000000000000081526000600482015260240161033e565b600160a060020a03831661058b576040517f94280d620000000000000000000000000000000000000000000000000000000081526000600482015260240161033e565b600160a060020a038085166000908152600160209081526040808320938716835292905220829055801561041b5782600160a060020a031684600160a060020a03167f8c5be1e5ebec7d5bd14f71427d1e84f3dd0314c0f7b2291e5b200ac8c7c3b925846040516105fe91815260200190565b60405180910390a350505050565b600160a060020a03831661063757806002600082825461062c91906108c7565b909155506106c29050565b600160a060020a038316600090815260208190526040902054818110156106a3576040517fe450d38c000000000000000000000000000000000000000000000000000000008152600160a060020a0385166004820152602481018290526044810183905260640161033e565b600160a060020a03841660009081526020819052604090209082900390555b600160a060020a0382166106de576002805482900390556106fd565b600160a060020a03821660009081526020819052604090208054820190555b81600160a060020a031683600160a060020a03167fddf252ad1be2c89b69c2b068fc378daa952ba7f163c4a11628f55a4df523b3ef8360405161074291815260200190565b60405180910390a3505050565b600060208083528351808285015260005b8181101561077c57858101830151858201604001528201610760565b506000604082860101526040601f19601f8301168501019250505092915050565b8035600160a060020a03811681146107b457600080fd5b919050565b600080604083850312156107cc57600080fd5b6107d58361079d565b946020939093013593505050565b6000806000606084860312156107f857600080fd5b6108018461079d565b925061080f6020850161079d565b9150604084013590509250925092565b60006020828403121561083157600080fd5b61083a8261079d565b9392505050565b6000806040838503121561085457600080fd5b61085d8361079d565b915061086b6020840161079d565b90509250929050565b60028104600182168061088857607f821691505b6020821081036108c1577f4e487b7100000000000000000000000000000000000000000000000000000000600052602260045260246000fd5b50919050565b808201808211156102a1577f4e487b7100000000000000000000000000000000000000000000000000000000600052601160045260246000fdfea2646970667358221220d18087ddc12438c324f871ca2bcfeaa88ab406e5f50720f31c18ea0beade545164736f6c63430008140033",
  "devdoc": {
    "errors": {
      "ERC20InsufficientAllowance(address,uint256,uint256)": [
        {
          "details": "Indicates a failure with the `spender`s `allowance`. Used in transfers.",
          "params": {
            "allowance": "Amount of tokens a `spender` is allowed to operate with.",
            "needed": "Minimum amount required to perform a transfer.",
            "spender": "Address that may be allowed to operate on tokens without being their owner."
          }
        }
      ],
      "ERC20InsufficientBalance(address,uint256,uint256)": [
        {
          "details": "Indicates an error related to the current `balance` of a `sender`. Used in transfers.",
          "params": {
            "balance": "Current balance for the interacting account.",
            "needed": "Minimum amount required to perform a transfer.",
            "sender": "Address whose tokens are being transferred."
          }
        }
      ],
      "ERC20InvalidApprover(address)": [
        {
          "details": "Indicates a failure with the `approver` of a token to be approved. Used in approvals.",
          "params": {
            "approver": "Address initiating an approval operation."
          }
        }
      ],
      "ERC20InvalidReceiver(address)": [
        {
          "details": "Indicates a failure with the token `receiver`. Used in transfers.",
          "params": {
            "receiver": "Address to which tokens are being transferred."
          }
        }
      ],
      "ERC20InvalidSender(address)": [
        {
          "details": "Indicates a failure with the token `sender`. Used in transfers.",
          "params": {
            "sender": "Address whose tokens are being transferred."
          }
        }
      ],
      "ERC20InvalidSpender(address)": [
        {
          "details": "Indicates a failure with the `spender` to be approved. Used in approvals.",
          "params": {
            "spender": "Address that may be allowed to operate on tokens without being their owner."
          }
        }
      ]
    },
    "events": {
      "Approval(address,address,uint256)": {
        "details": "Emitted when the allowance of a `spender` for an `owner` is set by a call to {approve}. `value` is the new allowance."
      },
      "Transfer(address,address,uint256)": {
        "details": "Emitted when `value` tokens are moved from one account (`from`) to another (`to`). Note that `value` may be zero."
      }
    },
    "kind": "dev",
    "methods": {
      "allowance(address,address)": {
        "details": "See {IERC20-allowance}."
      },
      "approve(address,uint256)": {
        "details": "See {IERC20-approve}. NOTE: If `value` is the maximum `uint256`, the allowance is not updated on `transferFrom`. This is semantically equivalent to an infinite approval. Requirements: - `spender` cannot be the zero address."
      },
      "balanceOf(address)": {
        "details": "See {IERC20-balanceOf}."
      },
      "decimals()": {
        "details": "Returns the number of decimals used to get its user representation. For example, if `decimals` equals `2`, a balance of `505` tokens should be displayed to a user as `5.05` (`505 / 10 ** 2`). Tokens usually opt for a value of 18, imitating the relationship between Ether and Wei. This is the default value returned by this function, unless it's overridden. NOTE: This information is only used for _display_ purposes: it in no way affects any of the arithmetic of the contract, including {IERC20-balanceOf} and {IERC20-transfer}."
      },
      "name()": {
        "details": "Returns the name of the token."
      },
      "symbol()": {
        "details": "Returns the symbol of the token, usually a shorter version of the name."
      },
      "totalSupply()": {
        "details": "See {IERC20-totalSupply}."
      },
      "transfer(address,uint256)": {
        "details": "See {IERC20-transfer}. Requirements: - `to` cannot be the zero address. - the caller must have a balance of at least `value`."
      },
      "transferFrom(address,address,uint256)": {
        "details": "See {IERC20-transferFrom}. Emits an {Approval} event indicating the updated allowance. This is not required by the EIP. See the note at the beginning of {ERC20}. NOTE: Does not update the allowance if the current allowance is the maximum `uint256`. Requirements: - `from` and `to` cannot be the zero address. - `from` must have a balance of at least `value`. - the caller must have allowance for ``from``'s tokens of at least `value`."
      }
    },
    "version": 1
  },
  "userdoc": {
    "kind": "user",
    "methods": {},
    "version": 1
  },
  "storageLayout": {
    "storage": [
      {
        "astId": 307,
        "contract": "contracts/testTokens/TestTokens.sol:TestToken",
        "label": "_balances",
        "offset": 0,
        "slot": "0",
        "type": "t_mapping(t_address,t_uint256)"
      },
      {
        "astId": 313,
        "contract": "contracts/testTokens/TestTokens.sol:TestToken",
        "label": "_allowances",
        "offset": 0,
        "slot": "1",
        "type": "t_mapping(t_address,t_mapping(t_address,t_uint256))"
      },
      {
        "astId": 315,
        "contract": "contracts/testTokens/TestTokens.sol:TestToken",
        "label": "_totalSupply",
        "offset": 0,
        "slot": "2",
        "type": "t_uint256"
      },
      {
        "astId": 317,
        "contract": "contracts/testTokens/TestTokens.sol:TestToken",
        "label": "_name",
        "offset": 0,
        "slot": "3",
        "type": "t_string_storage"
      },
      {
        "astId": 319,
        "contract": "contracts/testTokens/TestTokens.sol:TestToken",
        "label": "_symbol",
        "offset": 0,
        "slot": "4",
        "type": "t_string_storage"
      },
      {
        "astId": 2077,
        "contract": "contracts/testTokens/TestTokens.sol:TestToken",
        "label": "mintable",
        "offset": 0,
        "slot": "5",
        "type": "t_uint256"
      },
      {
        "astId": 2079,
        "contract": "contracts/testTokens/TestTokens.sol:TestToken",
        "label": "admin",
        "offset": 0,
        "slot": "6",
        "type": "t_address"
      }
    ],
    "types": {
      "t_address": {
        "encoding": "inplace",
        "label": "address",
        "numberOfBytes": "20"
      },
      "t_mapping(t_address,t_mapping(t_address,t_uint256))": {
        "encoding": "mapping",
        "key": "t_address",
        "label": "mapping(address => mapping(address => uint256))",
        "numberOfBytes": "32",
        "value": "t_mapping(t_address,t_uint256)"
      },
      "t_mapping(t_address,t_uint256)": {
        "encoding": "mapping",
        "key": "t_address",
        "label": "mapping(address => uint256)",
        "numberOfBytes": "32",
        "value": "t_uint256"
      },
      "t_string_storage": {
        "encoding": "bytes",
        "label": "string",
        "numberOfBytes": "32"
      },
      "t_uint256": {
        "encoding": "inplace",
        "label": "uint256",
        "numberOfBytes": "32"
      }
    }
  }
}